{
  "_format": "hh-sol-artifact-1",
  "contractName": "InsuranceSystem",
  "sourceName": "contracts/InsuranceSystem.sol",
  "abi": [
    {
      "inputs": [
        {
          "internalType": "address",
          "name": "_investorTokenAddress",
          "type": "address"
        },
        {
          "internalType": "address",
          "name": "_claimAssesorTokenAddress",
          "type": "address"
        }
      ],
      "stateMutability": "nonpayable",
      "type": "constructor"
    },
    {
      "inputs": [
        {
          "internalType": "uint256",
          "name": "_claimId",
          "type": "uint256"
        }
      ],
      "name": "InvestorVotingStart",
      "outputs": [],
      "stateMutability": "nonpayable",
      "type": "function"
    },
    {
      "inputs": [
        {
          "internalType": "uint256",
          "name": "",
          "type": "uint256"
        }
      ],
      "name": "PolicyholdersClaimDetails",
      "outputs": [
        {
          "internalType": "string",
          "name": "ClaimIpfs",
          "type": "string"
        },
        {
          "internalType": "string",
          "name": "holdersDetailsIpfsHash",
          "type": "string"
        },
        {
          "internalType": "enum InsuranceSystem.ClaimStatus",
          "name": "claimStatus",
          "type": "uint8"
        },
        {
          "components": [
            {
              "internalType": "uint256",
              "name": "TotalVotes",
              "type": "uint256"
            },
            {
              "internalType": "uint256",
              "name": "numberOfVotesFor",
              "type": "uint256"
            },
            {
              "internalType": "uint256",
              "name": "numberOfVotesAgainst",
              "type": "uint256"
            },
            {
              "internalType": "uint256",
              "name": "VotingTime",
              "type": "uint256"
            }
          ],
          "internalType": "struct InsuranceSystem.Voting",
          "name": "InvestorVoting",
          "type": "tuple"
        },
        {
          "internalType": "address",
          "name": "Claimer",
          "type": "address"
        },
        {
          "components": [
            {
              "internalType": "uint256",
              "name": "TotalVotes",
              "type": "uint256"
            },
            {
              "internalType": "uint256",
              "name": "numberOfVotesFor",
              "type": "uint256"
            },
            {
              "internalType": "uint256",
              "name": "numberOfVotesAgainst",
              "type": "uint256"
            },
            {
              "internalType": "uint256",
              "name": "VotingTime",
              "type": "uint256"
            }
          ],
          "internalType": "struct InsuranceSystem.Voting",
          "name": "claimReportVoting",
          "type": "tuple"
        },
        {
          "internalType": "enum InsuranceSystem.ClaimStatus",
          "name": "claimReportStatus",
          "type": "uint8"
        },
        {
          "internalType": "string",
          "name": "claimReportIpfs",
          "type": "string"
        }
      ],
      "stateMutability": "view",
      "type": "function"
    },
    {
      "inputs": [
        {
          "internalType": "uint256",
          "name": "_claimId",
          "type": "uint256"
        }
      ],
      "name": "VotingResults",
      "outputs": [
        {
          "internalType": "enum InsuranceSystem.ClaimStatus",
          "name": "claimStatus",
          "type": "uint8"
        }
      ],
      "stateMutability": "nonpayable",
      "type": "function"
    },
    {
      "inputs": [
        {
          "internalType": "address",
          "name": "",
          "type": "address"
        }
      ],
      "name": "approvedHolders",
      "outputs": [
        {
          "internalType": "bool",
          "name": "",
          "type": "bool"
        }
      ],
      "stateMutability": "view",
      "type": "function"
    },
    {
      "inputs": [],
      "name": "buyCTKN",
      "outputs": [],
      "stateMutability": "payable",
      "type": "function"
    },
    {
      "inputs": [],
      "name": "claimAmount",
      "outputs": [
        {
          "internalType": "uint256",
          "name": "",
          "type": "uint256"
        }
      ],
      "stateMutability": "view",
      "type": "function"
    },
    {
      "inputs": [],
      "name": "claimAssesorToken",
      "outputs": [
        {
          "internalType": "contract ClaimAssessorToken",
          "name": "",
          "type": "address"
        }
      ],
      "stateMutability": "view",
      "type": "function"
    },
    {
      "inputs": [
        {
          "internalType": "uint256",
          "name": "_claimID",
          "type": "uint256"
        },
        {
          "internalType": "string",
          "name": "_claimReportIpfs",
          "type": "string"
        }
      ],
      "name": "claimAssessorReport",
      "outputs": [],
      "stateMutability": "nonpayable",
      "type": "function"
    },
    {
      "inputs": [
        {
          "internalType": "uint256",
          "name": "_claimID",
          "type": "uint256"
        }
      ],
      "name": "claimReportVoteAgainst",
      "outputs": [],
      "stateMutability": "nonpayable",
      "type": "function"
    },
    {
      "inputs": [
        {
          "internalType": "uint256",
          "name": "_claimID",
          "type": "uint256"
        }
      ],
      "name": "claimReportVoteFor",
      "outputs": [],
      "stateMutability": "nonpayable",
      "type": "function"
    },
    {
      "inputs": [
        {
          "internalType": "uint256",
          "name": "_claimID",
          "type": "uint256"
        }
      ],
      "name": "claimReportVotingResults",
      "outputs": [
        {
          "internalType": "enum InsuranceSystem.ClaimStatus",
          "name": "claimStatus",
          "type": "uint8"
        }
      ],
      "stateMutability": "nonpayable",
      "type": "function"
    },
    {
      "inputs": [],
      "name": "coverFees",
      "outputs": [
        {
          "internalType": "uint256",
          "name": "",
          "type": "uint256"
        }
      ],
      "stateMutability": "view",
      "type": "function"
    },
    {
      "inputs": [],
      "name": "depositCapital",
      "outputs": [],
      "stateMutability": "payable",
      "type": "function"
    },
    {
      "inputs": [],
      "name": "depositCoverFees",
      "outputs": [],
      "stateMutability": "payable",
      "type": "function"
    },
    {
      "inputs": [
        {
          "internalType": "uint256",
          "name": "_claimId",
          "type": "uint256"
        }
      ],
      "name": "getClaimAmount",
      "outputs": [],
      "stateMutability": "nonpayable",
      "type": "function"
    },
    {
      "inputs": [
        {
          "internalType": "uint256",
          "name": "_claimID",
          "type": "uint256"
        }
      ],
      "name": "getclaim",
      "outputs": [
        {
          "internalType": "enum InsuranceSystem.ClaimStatus",
          "name": "",
          "type": "uint8"
        }
      ],
      "stateMutability": "view",
      "type": "function"
    },
    {
      "inputs": [
        {
          "internalType": "address",
          "name": "",
          "type": "address"
        }
      ],
      "name": "holdersDetailsIpfsHash",
      "outputs": [
        {
          "internalType": "string",
          "name": "",
          "type": "string"
        }
      ],
      "stateMutability": "view",
      "type": "function"
    },
    {
      "inputs": [],
      "name": "investorToken",
      "outputs": [
        {
          "internalType": "contract InvestorToken",
          "name": "",
          "type": "address"
        }
      ],
      "stateMutability": "view",
      "type": "function"
    },
    {
      "inputs": [
        {
          "internalType": "uint256",
          "name": "_numberOftokens",
          "type": "uint256"
        }
      ],
      "name": "stakeTokens",
      "outputs": [],
      "stateMutability": "nonpayable",
      "type": "function"
    },
    {
      "inputs": [
        {
          "internalType": "string",
          "name": "_claimIpfs",
          "type": "string"
        }
      ],
      "name": "submitClaim",
      "outputs": [
        {
          "internalType": "uint256",
          "name": "",
          "type": "uint256"
        }
      ],
      "stateMutability": "nonpayable",
      "type": "function"
    },
    {
      "inputs": [
        {
          "internalType": "string",
          "name": "_holderDetailsipfsHash",
          "type": "string"
        }
      ],
      "name": "submitPolicyHolder",
      "outputs": [],
      "stateMutability": "nonpayable",
      "type": "function"
    },
    {
      "inputs": [],
      "name": "totalStakedTokens",
      "outputs": [
        {
          "internalType": "uint256",
          "name": "",
          "type": "uint256"
        }
      ],
      "stateMutability": "view",
      "type": "function"
    },
    {
      "inputs": [
        {
          "internalType": "uint256",
          "name": "_numberOftokens",
          "type": "uint256"
        }
      ],
      "name": "unstakeTokens",
      "outputs": [],
      "stateMutability": "nonpayable",
      "type": "function"
    },
    {
      "inputs": [
        {
          "internalType": "uint256",
          "name": "_claimId",
          "type": "uint256"
        }
      ],
      "name": "voteAgainst",
      "outputs": [],
      "stateMutability": "nonpayable",
      "type": "function"
    },
    {
      "inputs": [
        {
          "internalType": "uint256",
          "name": "_claimId",
          "type": "uint256"
        }
      ],
      "name": "votefor",
      "outputs": [],
      "stateMutability": "nonpayable",
      "type": "function"
    },
    {
      "inputs": [
        {
          "internalType": "uint256",
          "name": "_amount",
          "type": "uint256"
        }
      ],
      "name": "withdrawCapital",
      "outputs": [],
      "stateMutability": "nonpayable",
      "type": "function"
    },
    {
      "inputs": [
        {
          "internalType": "uint256",
          "name": "_amount",
          "type": "uint256"
        }
      ],
      "name": "withdrawClaimTokens",
      "outputs": [],
      "stateMutability": "nonpayable",
      "type": "function"
    }
  ],
  "bytecode": "0x608060405260006004553480156200001657600080fd5b50604051620041a4380380620041a483398181016040528101906200003c9190620000dc565b816000806101000a81548173ffffffffffffffffffffffffffffffffffffffff021916908373ffffffffffffffffffffffffffffffffffffffff16021790555080600160006101000a81548173ffffffffffffffffffffffffffffffffffffffff021916908373ffffffffffffffffffffffffffffffffffffffff16021790555050506200016b565b600081519050620000d68162000151565b92915050565b60008060408385031215620000f057600080fd5b60006200010085828601620000c5565b92505060206200011385828601620000c5565b9150509250929050565b60006200012a8262000131565b9050919050565b600073ffffffffffffffffffffffffffffffffffffffff82169050919050565b6200015c816200011d565b81146200016857600080fd5b50565b614029806200017b6000396000f3fe60806040526004361061019c5760003560e01c80637547c7a3116100ec5780639da1e3e71161008a578063c9fcc00b11610064578063c9fcc00b1461057a578063cef63600146105a5578063d95b0a12146105ce578063fb9ae131146105f75761019c565b80639da1e3e7146104eb578063b3731c6514610514578063c6329f131461053d5761019c565b80638410c893116100c65780638410c8931461041f57806385c74f291461045c5780638763792e146104855780638e71040e146104c25761019c565b80637547c7a3146103c157806380d8c98f146103ea578063830953ab146103f45761019c565b80635292e4e811610159578063608e4dd011610133578063608e4dd01461033a57806361808ae01461036357806372ef6d0d1461038e578063750e443a146103985761019c565b80635292e4e8146102bf578063570678be146102e85780635b426bbb146103115761019c565b8063395efbb4146101a15780633adc862b146101de5780633ae73259146102225780633c1459da1461024d5780633e985b7c146102785780634b6f846614610282575b600080fd5b3480156101ad57600080fd5b506101c860048036038101906101c39190613651565b610634565b6040516101d59190613928565b60405180910390f35b3480156101ea57600080fd5b50610205600480360381019061020091906136bb565b610654565b6040516102199897969594939291906139b6565b60405180910390f35b34801561022e57600080fd5b506102376108d2565b6040516102449190613acc565b60405180910390f35b34801561025957600080fd5b506102626108d8565b60405161026f9190613acc565b60405180910390f35b6102806108e4565b005b34801561028e57600080fd5b506102a960048036038101906102a491906136bb565b610a81565b6040516102b69190613979565b60405180910390f35b3480156102cb57600080fd5b506102e660048036038101906102e191906136bb565b610aae565b005b3480156102f457600080fd5b5061030f600480360381019061030a919061367a565b610e4c565b005b34801561031d57600080fd5b50610338600480360381019061033391906136bb565b610ea3565b005b34801561034657600080fd5b50610361600480360381019061035c91906136bb565b6112ec565b005b34801561036f57600080fd5b5061037861153a565b604051610385919061395e565b60405180910390f35b61039661155e565b005b3480156103a457600080fd5b506103bf60048036038101906103ba91906136bb565b6116a8565b005b3480156103cd57600080fd5b506103e860048036038101906103e391906136bb565b611ba7565b005b6103f2611cbb565b005b34801561040057600080fd5b50610409611e57565b6040516104169190613acc565b60405180910390f35b34801561042b57600080fd5b5061044660048036038101906104419190613651565b611e63565b6040516104539190613994565b60405180910390f35b34801561046857600080fd5b50610483600480360381019061047e91906136bb565b611f03565b005b34801561049157600080fd5b506104ac60048036038101906104a791906136bb565b6122a1565b6040516104b99190613979565b60405180910390f35b3480156104ce57600080fd5b506104e960048036038101906104e491906136bb565b6124ef565b005b3480156104f757600080fd5b50610512600480360381019061050d919061370d565b6126dc565b005b34801561052057600080fd5b5061053b600480360381019061053691906136bb565b612958565b005b34801561054957600080fd5b50610564600480360381019061055f919061367a565b612a23565b6040516105719190613acc565b60405180910390f35b34801561058657600080fd5b5061058f612f26565b60405161059c9190613943565b60405180910390f35b3480156105b157600080fd5b506105cc60048036038101906105c791906136bb565b612f4c565b005b3480156105da57600080fd5b506105f560048036038101906105f091906136bb565b613134565b005b34801561060357600080fd5b5061061e600480360381019061061991906136bb565b61331e565b60405161062b9190613979565b60405180910390f35b60066020528060005260406000206000915054906101000a900460ff1681565b600560205280600052604060002060009150905080600001805461067790613d65565b80601f01602080910402602001604051908101604052809291908181526020018280546106a390613d65565b80156106f05780601f106106c5576101008083540402835291602001916106f0565b820191906000526020600020905b8154815290600101906020018083116106d357829003601f168201915b50505050509080600101805461070590613d65565b80601f016020809104026020016040519081016040528092919081815260200182805461073190613d65565b801561077e5780601f106107535761010080835404028352916020019161077e565b820191906000526020600020905b81548152906001019060200180831161076157829003601f168201915b5050505050908060020160009054906101000a900460ff169080600301604051806080016040529081600082015481526020016001820154815260200160028201548152602001600382015481525050908060070160009054906101000a900473ffffffffffffffffffffffffffffffffffffffff1690806008016040518060800160405290816000820154815260200160018201548152602001600282015481526020016003820154815250509080600c0160009054906101000a900460ff169080600d01805461084f90613d65565b80601f016020809104026020016040519081016040528092919081815260200182805461087b90613d65565b80156108c85780601f1061089d576101008083540402835291602001916108c8565b820191906000526020600020905b8154815290600101906020018083116108ab57829003601f168201915b5050505050905088565b60035481565b670de0b6b3a764000081565b60008060009054906101000a900473ffffffffffffffffffffffffffffffffffffffff1673ffffffffffffffffffffffffffffffffffffffff166370a08231336040518263ffffffff1660e01b815260040161094091906138e4565b60206040518083038186803b15801561095857600080fd5b505afa15801561096c573d6000803e3d6000fd5b505050506040513d601f19601f8201168201806040525081019061099091906136e4565b146109d0576040517f08c379a00000000000000000000000000000000000000000000000000000000081526004016109c790613aac565b60405180910390fd5b670de0b6b3a764000034116109e457600080fd5b600160009054906101000a900473ffffffffffffffffffffffffffffffffffffffff1673ffffffffffffffffffffffffffffffffffffffff16631072cbea33606434610a309190613be0565b6040518363ffffffff1660e01b8152600401610a4d9291906138ff565b600060405180830381600087803b158015610a6757600080fd5b505af1158015610a7b573d6000803e3d6000fd5b50505050565b600060056000838152602001908152602001600020600c0160009054906101000a900460ff169050919050565b6001600260003373ffffffffffffffffffffffffffffffffffffffff1673ffffffffffffffffffffffffffffffffffffffff1681526020019081526020016000205411610afa57600080fd5b60001515600860003373ffffffffffffffffffffffffffffffffffffffff1673ffffffffffffffffffffffffffffffffffffffff16815260200190815260200160002060009054906101000a900460ff16151514610b8d576040517f08c379a0000000000000000000000000000000000000000000000000000000008152600401610b8490613a4c565b60405180910390fd5b6000600160009054906101000a900473ffffffffffffffffffffffffffffffffffffffff1673ffffffffffffffffffffffffffffffffffffffff166370a08231336040518263ffffffff1660e01b8152600401610bea91906138e4565b60206040518083038186803b158015610c0257600080fd5b505afa158015610c16573d6000803e3d6000fd5b505050506040513d601f19601f82011682018060405250810190610c3a91906136e4565b1415610c7b576040517f08c379a0000000000000000000000000000000000000000000000000000000008152600401610c7290613a8c565b60405180910390fd5b803373ffffffffffffffffffffffffffffffffffffffff166005600083815260200190815260200160002060070160009054906101000a900473ffffffffffffffffffffffffffffffffffffffff1673ffffffffffffffffffffffffffffffffffffffff161415610ceb57600080fd5b8142600560008381526020019081526020016000206008016003015411610d1157600080fd5b600260003373ffffffffffffffffffffffffffffffffffffffff1673ffffffffffffffffffffffffffffffffffffffff16815260200190815260200160002054600560008581526020019081526020016000206008016001016000828254610d799190613b59565b92505081905550600260003373ffffffffffffffffffffffffffffffffffffffff1673ffffffffffffffffffffffffffffffffffffffff16815260200190815260200160002054600560008581526020019081526020016000206008016000016000828254610de89190613b59565b925050819055506001600860003373ffffffffffffffffffffffffffffffffffffffff1673ffffffffffffffffffffffffffffffffffffffff16815260200190815260200160002060006101000a81548160ff021916908315150217905550505050565b80600760003373ffffffffffffffffffffffffffffffffffffffff1673ffffffffffffffffffffffffffffffffffffffff1681526020019081526020016000209080519060200190610e9f929190613507565b5050565b803373ffffffffffffffffffffffffffffffffffffffff166005600083815260200190815260200160002060070160009054906101000a900473ffffffffffffffffffffffffffffffffffffffff1673ffffffffffffffffffffffffffffffffffffffff161415610f1357600080fd5b8142600560008381526020019081526020016000206003016003015411610f3957600080fd5b60008060009054906101000a900473ffffffffffffffffffffffffffffffffffffffff1673ffffffffffffffffffffffffffffffffffffffff166370a08231336040518263ffffffff1660e01b8152600401610f9591906138e4565b60206040518083038186803b158015610fad57600080fd5b505afa158015610fc1573d6000803e3d6000fd5b505050506040513d601f19601f82011682018060405250810190610fe591906136e4565b1415611026576040517f08c379a000000000000000000000000000000000000000000000000000000000815260040161101d90613aac565b60405180910390fd5b60001515600860003373ffffffffffffffffffffffffffffffffffffffff1673ffffffffffffffffffffffffffffffffffffffff16815260200190815260200160002060009054906101000a900460ff161515146110b9576040517f08c379a00000000000000000000000000000000000000000000000000000000081526004016110b090613a4c565b60405180910390fd5b670de0b6b3a764000060008054906101000a900473ffffffffffffffffffffffffffffffffffffffff1673ffffffffffffffffffffffffffffffffffffffff166370a08231336040518263ffffffff1660e01b815260040161111b91906138e4565b60206040518083038186803b15801561113357600080fd5b505afa158015611147573d6000803e3d6000fd5b505050506040513d601f19601f8201168201806040525081019061116b91906136e4565b6111759190613baf565b60056000858152602001908152602001600020600301600101600082825461119d9190613b59565b92505081905550670de0b6b3a764000060008054906101000a900473ffffffffffffffffffffffffffffffffffffffff1673ffffffffffffffffffffffffffffffffffffffff166370a08231336040518263ffffffff1660e01b815260040161120691906138e4565b60206040518083038186803b15801561121e57600080fd5b505afa158015611232573d6000803e3d6000fd5b505050506040513d601f19601f8201168201806040525081019061125691906136e4565b6112609190613baf565b6005600085815260200190815260200160002060030160000160008282546112889190613b59565b925050819055506001600860003373ffffffffffffffffffffffffffffffffffffffff1673ffffffffffffffffffffffffffffffffffffffff16815260200190815260200160002060006101000a81548160ff021916908315150217905550505050565b6000600160009054906101000a900473ffffffffffffffffffffffffffffffffffffffff1673ffffffffffffffffffffffffffffffffffffffff166370a08231336040518263ffffffff1660e01b815260040161134991906138e4565b60206040518083038186803b15801561136157600080fd5b505afa158015611375573d6000803e3d6000fd5b505050506040513d601f19601f8201168201806040525081019061139991906136e4565b14156113da576040517f08c379a00000000000000000000000000000000000000000000000000000000081526004016113d190613a8c565b60405180910390fd5b6001600260003373ffffffffffffffffffffffffffffffffffffffff1673ffffffffffffffffffffffffffffffffffffffff168152602001908152602001600020541161142657600080fd5b600160009054906101000a900473ffffffffffffffffffffffffffffffffffffffff1673ffffffffffffffffffffffffffffffffffffffff16636c82a72633670de0b6b3a7640000846114799190613be0565b6040518363ffffffff1660e01b81526004016114969291906138ff565b600060405180830381600087803b1580156114b057600080fd5b505af11580156114c4573d6000803e3d6000fd5b5050505080600260003373ffffffffffffffffffffffffffffffffffffffff1673ffffffffffffffffffffffffffffffffffffffff16815260200190815260200160002060008282546115179190613c3a565b9250508190555080600360008282546115309190613c3a565b9250508190555050565b60008054906101000a900473ffffffffffffffffffffffffffffffffffffffff1681565b6000600760003373ffffffffffffffffffffffffffffffffffffffff1673ffffffffffffffffffffffffffffffffffffffff16815260200190815260200160002080546115aa90613d65565b80601f01602080910402602001604051908101604052809291908181526020018280546115d690613d65565b80156116235780601f106115f857610100808354040283529160200191611623565b820191906000526020600020905b81548152906001019060200180831161160657829003601f168201915b5050505050905060008151141561163957600080fd5b670de0b6b3a7640000341461164d57600080fd5b6001600660003373ffffffffffffffffffffffffffffffffffffffff1673ffffffffffffffffffffffffffffffffffffffff16815260200190815260200160002060006101000a81548160ff02191690831515021790555050565b803373ffffffffffffffffffffffffffffffffffffffff166005600083815260200190815260200160002060070160009054906101000a900473ffffffffffffffffffffffffffffffffffffffff1673ffffffffffffffffffffffffffffffffffffffff16141561171857600080fd5b814260056000838152602001908152602001600020600301600301541161173e57600080fd5b60008060009054906101000a900473ffffffffffffffffffffffffffffffffffffffff1673ffffffffffffffffffffffffffffffffffffffff166370a08231336040518263ffffffff1660e01b815260040161179a91906138e4565b60206040518083038186803b1580156117b257600080fd5b505afa1580156117c6573d6000803e3d6000fd5b505050506040513d601f19601f820116820180604052508101906117ea91906136e4565b141561182b576040517f08c379a000000000000000000000000000000000000000000000000000000000815260040161182290613aac565b60405180910390fd5b60001515600860003373ffffffffffffffffffffffffffffffffffffffff1673ffffffffffffffffffffffffffffffffffffffff16815260200190815260200160002060009054906101000a900460ff161515146118be576040517f08c379a00000000000000000000000000000000000000000000000000000000081526004016118b590613a4c565b60405180910390fd5b60008060009054906101000a900473ffffffffffffffffffffffffffffffffffffffff1673ffffffffffffffffffffffffffffffffffffffff166370a08231336040518263ffffffff1660e01b815260040161191a91906138e4565b60206040518083038186803b15801561193257600080fd5b505afa158015611946573d6000803e3d6000fd5b505050506040513d601f19601f8201168201806040525081019061196a91906136e4565b1161197457600080fd5b670de0b6b3a764000060008054906101000a900473ffffffffffffffffffffffffffffffffffffffff1673ffffffffffffffffffffffffffffffffffffffff166370a08231336040518263ffffffff1660e01b81526004016119d691906138e4565b60206040518083038186803b1580156119ee57600080fd5b505afa158015611a02573d6000803e3d6000fd5b505050506040513d601f19601f82011682018060405250810190611a2691906136e4565b611a309190613baf565b600560008581526020019081526020016000206003016002016000828254611a589190613b59565b92505081905550670de0b6b3a764000060008054906101000a900473ffffffffffffffffffffffffffffffffffffffff1673ffffffffffffffffffffffffffffffffffffffff166370a08231336040518263ffffffff1660e01b8152600401611ac191906138e4565b60206040518083038186803b158015611ad957600080fd5b505afa158015611aed573d6000803e3d6000fd5b505050506040513d601f19601f82011682018060405250810190611b1191906136e4565b611b1b9190613baf565b600560008581526020019081526020016000206003016000016000828254611b439190613b59565b925050819055506001600860003373ffffffffffffffffffffffffffffffffffffffff1673ffffffffffffffffffffffffffffffffffffffff16815260200190815260200160002060006101000a81548160ff021916908315150217905550505050565b600160009054906101000a900473ffffffffffffffffffffffffffffffffffffffff1673ffffffffffffffffffffffffffffffffffffffff1663f739ed9e33670de0b6b3a764000084611bfa9190613be0565b6040518363ffffffff1660e01b8152600401611c179291906138ff565b600060405180830381600087803b158015611c3157600080fd5b505af1158015611c45573d6000803e3d6000fd5b5050505080600260003373ffffffffffffffffffffffffffffffffffffffff1673ffffffffffffffffffffffffffffffffffffffff1681526020019081526020016000206000828254611c989190613b59565b925050819055508060036000828254611cb19190613b59565b9250508190555050565b6000600160009054906101000a900473ffffffffffffffffffffffffffffffffffffffff1673ffffffffffffffffffffffffffffffffffffffff166370a08231336040518263ffffffff1660e01b8152600401611d1891906138e4565b60206040518083038186803b158015611d3057600080fd5b505afa158015611d44573d6000803e3d6000fd5b505050506040513d601f19601f82011682018060405250810190611d6891906136e4565b14611da8576040517f08c379a0000000000000000000000000000000000000000000000000000000008152600401611d9f90613a8c565b60405180910390fd5b670de0b6b3a76400003411611dbc57600080fd5b60008054906101000a900473ffffffffffffffffffffffffffffffffffffffff1673ffffffffffffffffffffffffffffffffffffffff16631072cbea33606434611e069190613be0565b6040518363ffffffff1660e01b8152600401611e239291906138ff565b600060405180830381600087803b158015611e3d57600080fd5b505af1158015611e51573d6000803e3d6000fd5b50505050565b678ac7230489e8000081565b60076020528060005260406000206000915090508054611e8290613d65565b80601f0160208091040260200160405190810160405280929190818152602001828054611eae90613d65565b8015611efb5780601f10611ed057610100808354040283529160200191611efb565b820191906000526020600020905b815481529060010190602001808311611ede57829003601f168201915b505050505081565b6001600260003373ffffffffffffffffffffffffffffffffffffffff1673ffffffffffffffffffffffffffffffffffffffff1681526020019081526020016000205411611f4f57600080fd5b60001515600860003373ffffffffffffffffffffffffffffffffffffffff1673ffffffffffffffffffffffffffffffffffffffff16815260200190815260200160002060009054906101000a900460ff16151514611fe2576040517f08c379a0000000000000000000000000000000000000000000000000000000008152600401611fd990613a4c565b60405180910390fd5b6000600160009054906101000a900473ffffffffffffffffffffffffffffffffffffffff1673ffffffffffffffffffffffffffffffffffffffff166370a08231336040518263ffffffff1660e01b815260040161203f91906138e4565b60206040518083038186803b15801561205757600080fd5b505afa15801561206b573d6000803e3d6000fd5b505050506040513d601f19601f8201168201806040525081019061208f91906136e4565b14156120d0576040517f08c379a00000000000000000000000000000000000000000000000000000000081526004016120c790613a8c565b60405180910390fd5b803373ffffffffffffffffffffffffffffffffffffffff166005600083815260200190815260200160002060070160009054906101000a900473ffffffffffffffffffffffffffffffffffffffff1673ffffffffffffffffffffffffffffffffffffffff16141561214057600080fd5b814260056000838152602001908152602001600020600801600301541161216657600080fd5b600260003373ffffffffffffffffffffffffffffffffffffffff1673ffffffffffffffffffffffffffffffffffffffff168152602001908152602001600020546005600085815260200190815260200160002060080160020160008282546121ce9190613b59565b92505081905550600260003373ffffffffffffffffffffffffffffffffffffffff1673ffffffffffffffffffffffffffffffffffffffff1681526020019081526020016000205460056000858152602001908152602001600020600801600001600082825461223d9190613b59565b925050819055506001600860003373ffffffffffffffffffffffffffffffffffffffff1673ffffffffffffffffffffffffffffffffffffffff16815260200190815260200160002060006101000a81548160ff021916908315150217905550505050565b600042600560008481526020019081526020016000206008016003015411156122ef5760056000838152602001908152602001600020600c0160009054906101000a900460ff1690506124ea565b42600560008481526020019081526020016000206008016003015410156124e95760006064600560008581526020019081526020016000206008016000015460056000868152602001908152602001600020600801600101546123529190613baf565b61235c9190613be0565b90506046811061245b57600060056000858152602001908152602001600020600c0160006101000a81548160ff021916908360038111156123c6577f4e487b7100000000000000000000000000000000000000000000000000000000600052602160045260246000fd5b021790555060006005600085815260200190815260200160002060020160006101000a81548160ff0219169083600381111561242b577f4e487b7100000000000000000000000000000000000000000000000000000000600052602160045260246000fd5b021790555060056000848152602001908152602001600020600c0160009054906101000a900460ff1691506124e7565b600160056000858152602001908152602001600020600c0160006101000a81548160ff021916908360038111156124bb577f4e487b7100000000000000000000000000000000000000000000000000000000600052602160045260246000fd5b021790555060056000848152602001908152602001600020600c0160009054906101000a900460ff1691505b505b5b919050565b6000600160009054906101000a900473ffffffffffffffffffffffffffffffffffffffff1673ffffffffffffffffffffffffffffffffffffffff166370a08231336040518263ffffffff1660e01b815260040161254c91906138e4565b60206040518083038186803b15801561256457600080fd5b505afa158015612578573d6000803e3d6000fd5b505050506040513d601f19601f8201168201806040525081019061259c91906136e4565b14156125dd576040517f08c379a00000000000000000000000000000000000000000000000000000000081526004016125d490613a8c565b60405180910390fd5b600160009054906101000a900473ffffffffffffffffffffffffffffffffffffffff1673ffffffffffffffffffffffffffffffffffffffff16639dc29fac33670de0b6b3a7640000846126309190613be0565b6040518363ffffffff1660e01b815260040161264d9291906138ff565b600060405180830381600087803b15801561266757600080fd5b505af115801561267b573d6000803e3d6000fd5b505050503373ffffffffffffffffffffffffffffffffffffffff166108fc670de0b6b3a7640000836126ad9190613be0565b9081150290604051600060405180830381858888f193505050501580156126d8573d6000803e3d6000fd5b5050565b6000600160009054906101000a900473ffffffffffffffffffffffffffffffffffffffff1673ffffffffffffffffffffffffffffffffffffffff166370a08231336040518263ffffffff1660e01b815260040161273991906138e4565b60206040518083038186803b15801561275157600080fd5b505afa158015612765573d6000803e3d6000fd5b505050506040513d601f19601f8201168201806040525081019061278991906136e4565b14156127ca576040517f08c379a00000000000000000000000000000000000000000000000000000000081526004016127c190613a8c565b60405180910390fd5b81600060056000838152602001908152602001600020600d0180546127ee90613d65565b80601f016020809104026020016040519081016040528092919081815260200182805461281a90613d65565b80156128675780601f1061283c57610100808354040283529160200191612867565b820191906000526020600020905b81548152906001019060200180831161284a57829003601f168201915b50505050509050600081511461287c57600080fd5b600083905060008151141561289057600080fd5b60006101f4426128a09190613b59565b90508460056000888152602001908152602001600020600d0190805190602001906128cc929190613507565b50806005600088815260200190815260200160002060080160030181905550600260056000888152602001908152602001600020600c0160006101000a81548160ff0219169083600381111561294b577f4e487b7100000000000000000000000000000000000000000000000000000000600052602160045260246000fd5b0217905550505050505050565b803373ffffffffffffffffffffffffffffffffffffffff166005600083815260200190815260200160002060070160009054906101000a900473ffffffffffffffffffffffffffffffffffffffff1673ffffffffffffffffffffffffffffffffffffffff16146129c757600080fd5b81426005600083815260200190815260200160002060080160030154106129ed57600080fd5b60006101f4426129fd9190613b59565b905080600560008681526020019081526020016000206003016003018190555050505050565b600060011515600660003373ffffffffffffffffffffffffffffffffffffffff1673ffffffffffffffffffffffffffffffffffffffff16815260200190815260200160002060009054906101000a900460ff16151514612a8257600080fd5b6000600760003373ffffffffffffffffffffffffffffffffffffffff1673ffffffffffffffffffffffffffffffffffffffff1681526020019081526020016000208054612ace90613d65565b80601f0160208091040260200160405190810160405280929190818152602001828054612afa90613d65565b8015612b475780601f10612b1c57610100808354040283529160200191612b47565b820191906000526020600020905b815481529060010190602001808311612b2a57829003601f168201915b50505050509050600081511415612b5d57600080fd5b60046000815480929190612b7090613dc8565b9190505550604051806101000160405280848152602001600760003373ffffffffffffffffffffffffffffffffffffffff1673ffffffffffffffffffffffffffffffffffffffff1681526020019081526020016000208054612bd190613d65565b80601f0160208091040260200160405190810160405280929190818152602001828054612bfd90613d65565b8015612c4a5780601f10612c1f57610100808354040283529160200191612c4a565b820191906000526020600020905b815481529060010190602001808311612c2d57829003601f168201915b50505050508152602001600380811115612c8d577f4e487b7100000000000000000000000000000000000000000000000000000000600052602160045260246000fd5b81526020016040518060800160405280600081526020016000815260200160008152602001600081525081526020013373ffffffffffffffffffffffffffffffffffffffff168152602001604051806080016040528060008152602001600081526020016000815260200160008152508152602001600380811115612d3b577f4e487b7100000000000000000000000000000000000000000000000000000000600052602160045260246000fd5b8152602001604051806020016040528060008152508152506005600060045481526020019081526020016000206000820151816000019080519060200190612d84929190613507565b506020820151816001019080519060200190612da1929190613507565b5060408201518160020160006101000a81548160ff02191690836003811115612df3577f4e487b7100000000000000000000000000000000000000000000000000000000600052602160045260246000fd5b021790555060608201518160030160008201518160000155602082015181600101556040820151816002015560608201518160030155505060808201518160070160006101000a81548173ffffffffffffffffffffffffffffffffffffffff021916908373ffffffffffffffffffffffffffffffffffffffff16021790555060a08201518160080160008201518160000155602082015181600101556040820151816002015560608201518160030155505060c082015181600c0160006101000a81548160ff02191690836003811115612ef6577f4e487b7100000000000000000000000000000000000000000000000000000000600052602160045260246000fd5b021790555060e082015181600d019080519060200190612f17929190613507565b50905050600454915050919050565b600160009054906101000a900473ffffffffffffffffffffffffffffffffffffffff1681565b8042600560008381526020019081526020016000206003016003015410612fa8576040517f08c379a0000000000000000000000000000000000000000000000000000000008152600401612f9f90613a6c565b60405180910390fd5b8142600560008381526020019081526020016000206008016003015410612fce57600080fd5b823373ffffffffffffffffffffffffffffffffffffffff166005600083815260200190815260200160002060070160009054906101000a900473ffffffffffffffffffffffffffffffffffffffff1673ffffffffffffffffffffffffffffffffffffffff161461303d57600080fd5b8360006003811115613078577f4e487b7100000000000000000000000000000000000000000000000000000000600052602160045260246000fd5b6005600083815260200190815260200160002060020160009054906101000a900460ff1660038111156130d4577f4e487b7100000000000000000000000000000000000000000000000000000000600052602160045260246000fd5b146130de57600080fd5b3373ffffffffffffffffffffffffffffffffffffffff166108fc678ac7230489e800009081150290604051600060405180830381858888f1935050505015801561312c573d6000803e3d6000fd5b505050505050565b60008060009054906101000a900473ffffffffffffffffffffffffffffffffffffffff1673ffffffffffffffffffffffffffffffffffffffff166370a08231336040518263ffffffff1660e01b815260040161319091906138e4565b60206040518083038186803b1580156131a857600080fd5b505afa1580156131bc573d6000803e3d6000fd5b505050506040513d601f19601f820116820180604052508101906131e091906136e4565b1415613221576040517f08c379a000000000000000000000000000000000000000000000000000000000815260040161321890613aac565b60405180910390fd5b60008054906101000a900473ffffffffffffffffffffffffffffffffffffffff1673ffffffffffffffffffffffffffffffffffffffff16639dc29fac33670de0b6b3a7640000846132729190613be0565b6040518363ffffffff1660e01b815260040161328f9291906138ff565b600060405180830381600087803b1580156132a957600080fd5b505af11580156132bd573d6000803e3d6000fd5b505050503373ffffffffffffffffffffffffffffffffffffffff166108fc670de0b6b3a7640000836132ef9190613be0565b9081150290604051600060405180830381858888f1935050505015801561331a573d6000803e3d6000fd5b5050565b6000426005600084815260200190815260200160002060030160030154111561336c576005600083815260200190815260200160002060020160009054906101000a900460ff169050613502565b42600560008481526020019081526020016000206003016003015410156135015760006064600560008581526020019081526020016000206003016000015460056000868152602001908152602001600020600301600101546133cf9190613baf565b6133d99190613be0565b9050604681106134735760006005600085815260200190815260200160002060020160006101000a81548160ff02191690836003811115613443577f4e487b7100000000000000000000000000000000000000000000000000000000600052602160045260246000fd5b02179055506005600084815260200190815260200160002060020160009054906101000a900460ff1691506134ff565b60016005600085815260200190815260200160002060020160006101000a81548160ff021916908360038111156134d3577f4e487b7100000000000000000000000000000000000000000000000000000000600052602160045260246000fd5b02179055506005600084815260200190815260200160002060020160009054906101000a900460ff1691505b505b5b919050565b82805461351390613d65565b90600052602060002090601f016020900481019282613535576000855561357c565b82601f1061354e57805160ff191683800117855561357c565b8280016001018555821561357c579182015b8281111561357b578251825591602001919060010190613560565b5b509050613589919061358d565b5090565b5b808211156135a657600081600090555060010161358e565b5090565b60006135bd6135b884613b0c565b613ae7565b9050828152602081018484840111156135d557600080fd5b6135e0848285613d23565b509392505050565b6000813590506135f781613fc5565b92915050565b600082601f83011261360e57600080fd5b813561361e8482602086016135aa565b91505092915050565b60008135905061363681613fdc565b92915050565b60008151905061364b81613fdc565b92915050565b60006020828403121561366357600080fd5b6000613671848285016135e8565b91505092915050565b60006020828403121561368c57600080fd5b600082013567ffffffffffffffff8111156136a657600080fd5b6136b2848285016135fd565b91505092915050565b6000602082840312156136cd57600080fd5b60006136db84828501613627565b91505092915050565b6000602082840312156136f657600080fd5b60006137048482850161363c565b91505092915050565b6000806040838503121561372057600080fd5b600061372e85828601613627565b925050602083013567ffffffffffffffff81111561374b57600080fd5b613757858286016135fd565b9150509250929050565b61376a81613c6e565b82525050565b61377981613c80565b82525050565b61378881613cc9565b82525050565b61379781613ced565b82525050565b6137a681613d11565b82525050565b60006137b782613b3d565b6137c18185613b48565b93506137d1818560208601613d32565b6137da81613efc565b840191505092915050565b60006137f2601683613b48565b91506137fd82613f0d565b602082019050919050565b6000613815601883613b48565b915061382082613f36565b602082019050919050565b6000613838601d83613b48565b915061384382613f5f565b602082019050919050565b600061385b601883613b48565b915061386682613f88565b602082019050919050565b60808201600082015161388760008501826138c6565b50602082015161389a60208501826138c6565b5060408201516138ad60408501826138c6565b5060608201516138c060608501826138c6565b50505050565b6138cf81613cbf565b82525050565b6138de81613cbf565b82525050565b60006020820190506138f96000830184613761565b92915050565b60006040820190506139146000830185613761565b61392160208301846138d5565b9392505050565b600060208201905061393d6000830184613770565b92915050565b6000602082019050613958600083018461377f565b92915050565b6000602082019050613973600083018461378e565b92915050565b600060208201905061398e600083018461379d565b92915050565b600060208201905081810360008301526139ae81846137ac565b905092915050565b60006101c08201905081810360008301526139d1818b6137ac565b905081810360208301526139e5818a6137ac565b90506139f4604083018961379d565b613a016060830188613871565b613a0e60e0830187613761565b613a1c610100830186613871565b613a2a61018083018561379d565b8181036101a0830152613a3d81846137ac565b90509998505050505050505050565b60006020820190508181036000830152613a65816137e5565b9050919050565b60006020820190508181036000830152613a8581613808565b9050919050565b60006020820190508181036000830152613aa58161382b565b9050919050565b60006020820190508181036000830152613ac58161384e565b9050919050565b6000602082019050613ae160008301846138d5565b92915050565b6000613af1613b02565b9050613afd8282613d97565b919050565b6000604051905090565b600067ffffffffffffffff821115613b2757613b26613ecd565b5b613b3082613efc565b9050602081019050919050565b600081519050919050565b600082825260208201905092915050565b6000613b6482613cbf565b9150613b6f83613cbf565b9250827fffffffffffffffffffffffffffffffffffffffffffffffffffffffffffffffff03821115613ba457613ba3613e11565b5b828201905092915050565b6000613bba82613cbf565b9150613bc583613cbf565b925082613bd557613bd4613e40565b5b828204905092915050565b6000613beb82613cbf565b9150613bf683613cbf565b9250817fffffffffffffffffffffffffffffffffffffffffffffffffffffffffffffffff0483118215151615613c2f57613c2e613e11565b5b828202905092915050565b6000613c4582613cbf565b9150613c5083613cbf565b925082821015613c6357613c62613e11565b5b828203905092915050565b6000613c7982613c9f565b9050919050565b60008115159050919050565b6000819050613c9a82613fb1565b919050565b600073ffffffffffffffffffffffffffffffffffffffff82169050919050565b6000819050919050565b6000613cd482613cdb565b9050919050565b6000613ce682613c9f565b9050919050565b6000613cf882613cff565b9050919050565b6000613d0a82613c9f565b9050919050565b6000613d1c82613c8c565b9050919050565b82818337600083830152505050565b60005b83811015613d50578082015181840152602081019050613d35565b83811115613d5f576000848401525b50505050565b60006002820490506001821680613d7d57607f821691505b60208210811415613d9157613d90613e9e565b5b50919050565b613da082613efc565b810181811067ffffffffffffffff82111715613dbf57613dbe613ecd565b5b80604052505050565b6000613dd382613cbf565b91507fffffffffffffffffffffffffffffffffffffffffffffffffffffffffffffffff821415613e0657613e05613e11565b5b600182019050919050565b7f4e487b7100000000000000000000000000000000000000000000000000000000600052601160045260246000fd5b7f4e487b7100000000000000000000000000000000000000000000000000000000600052601260045260246000fd5b7f4e487b7100000000000000000000000000000000000000000000000000000000600052602160045260246000fd5b7f4e487b7100000000000000000000000000000000000000000000000000000000600052602260045260246000fd5b7f4e487b7100000000000000000000000000000000000000000000000000000000600052604160045260246000fd5b6000601f19601f8301169050919050565b7f596f75204861766520616c726561647920766f74656400000000000000000000600082015250565b7f54686520766f74696e67206861736e6f7420656e656465640000000000000000600082015250565b7f596f7520617265206e6f7420616e20636c61696d204173736573736f72000000600082015250565b7f596f7520617265206e6f7420616e20496e766574736f72200000000000000000600082015250565b60048110613fc257613fc1613e6f565b5b50565b613fce81613c6e565b8114613fd957600080fd5b50565b613fe581613cbf565b8114613ff057600080fd5b5056fea2646970667358221220a4bdf5ac99cd256c8effa1a51aa311a5b001aa194ec2d3b6fef4091958fa95e864736f6c63430008030033",
  "linkReferences": {},
  "deployedLinkReferences": {}
}