{
  "_format": "hh-sol-artifact-1",
  "contractName": "InsuranceSystem",
  "sourceName": "contracts/InsuranceSystem.sol",
  "abi": [
    {
      "inputs": [
        {
          "internalType": "address",
          "name": "_investorTokenAddress",
          "type": "address"
        },
        {
          "internalType": "address",
          "name": "_claimAssesorTokenAddress",
          "type": "address"
        }
      ],
      "stateMutability": "nonpayable",
      "type": "constructor"
    },
    {
      "inputs": [
        {
          "internalType": "uint256",
          "name": "_claimId",
          "type": "uint256"
        }
      ],
      "name": "InvestorVotingStart",
      "outputs": [],
      "stateMutability": "nonpayable",
      "type": "function"
    },
    {
      "inputs": [
        {
          "internalType": "uint256",
          "name": "",
          "type": "uint256"
        }
      ],
      "name": "PolicyholdersClaimDetails",
      "outputs": [
        {
          "internalType": "string",
          "name": "ClaimIpfs",
          "type": "string"
        },
        {
          "internalType": "string",
          "name": "holdersDetailsIpfsHash",
          "type": "string"
        },
        {
          "internalType": "enum InsuranceSystem.ClaimStatus",
          "name": "claimStatus",
          "type": "uint8"
        },
        {
          "components": [
            {
              "internalType": "uint256",
              "name": "TotalVotes",
              "type": "uint256"
            },
            {
              "internalType": "uint256",
              "name": "numberOfVotesFor",
              "type": "uint256"
            },
            {
              "internalType": "uint256",
              "name": "numberOfVotesAgainst",
              "type": "uint256"
            },
            {
              "internalType": "uint256",
              "name": "VotingTime",
              "type": "uint256"
            }
          ],
          "internalType": "struct InsuranceSystem.Voting",
          "name": "InvestorVoting",
          "type": "tuple"
        },
        {
          "internalType": "address",
          "name": "Claimer",
          "type": "address"
        },
        {
          "components": [
            {
              "internalType": "uint256",
              "name": "TotalVotes",
              "type": "uint256"
            },
            {
              "internalType": "uint256",
              "name": "numberOfVotesFor",
              "type": "uint256"
            },
            {
              "internalType": "uint256",
              "name": "numberOfVotesAgainst",
              "type": "uint256"
            },
            {
              "internalType": "uint256",
              "name": "VotingTime",
              "type": "uint256"
            }
          ],
          "internalType": "struct InsuranceSystem.Voting",
          "name": "claimReportVoting",
          "type": "tuple"
        },
        {
          "internalType": "enum InsuranceSystem.ClaimStatus",
          "name": "claimReportStatus",
          "type": "uint8"
        },
        {
          "internalType": "string",
          "name": "claimReportIpfs",
          "type": "string"
        }
      ],
      "stateMutability": "view",
      "type": "function"
    },
    {
      "inputs": [
        {
          "internalType": "uint256",
          "name": "_claimId",
          "type": "uint256"
        }
      ],
      "name": "VotingResults",
      "outputs": [
        {
          "internalType": "enum InsuranceSystem.ClaimStatus",
          "name": "claimStatus",
          "type": "uint8"
        }
      ],
      "stateMutability": "nonpayable",
      "type": "function"
    },
    {
      "inputs": [
        {
          "internalType": "address",
          "name": "",
          "type": "address"
        }
      ],
      "name": "approvedHolders",
      "outputs": [
        {
          "internalType": "bool",
          "name": "",
          "type": "bool"
        }
      ],
      "stateMutability": "view",
      "type": "function"
    },
    {
      "inputs": [],
      "name": "buyCTKN",
      "outputs": [],
      "stateMutability": "payable",
      "type": "function"
    },
    {
      "inputs": [],
      "name": "claimAmount",
      "outputs": [
        {
          "internalType": "uint256",
          "name": "",
          "type": "uint256"
        }
      ],
      "stateMutability": "view",
      "type": "function"
    },
    {
      "inputs": [],
      "name": "claimAssesorToken",
      "outputs": [
        {
          "internalType": "contract ClaimAssessorToken",
          "name": "",
          "type": "address"
        }
      ],
      "stateMutability": "view",
      "type": "function"
    },
    {
      "inputs": [
        {
          "internalType": "uint256",
          "name": "_claimID",
          "type": "uint256"
        },
        {
          "internalType": "string",
          "name": "_claimReportIpfs",
          "type": "string"
        }
      ],
      "name": "claimAssessorReport",
      "outputs": [],
      "stateMutability": "nonpayable",
      "type": "function"
    },
    {
      "inputs": [
        {
          "internalType": "uint256",
          "name": "_claimID",
          "type": "uint256"
        }
      ],
      "name": "claimReportVoteAgainst",
      "outputs": [],
      "stateMutability": "nonpayable",
      "type": "function"
    },
    {
      "inputs": [
        {
          "internalType": "uint256",
          "name": "_claimID",
          "type": "uint256"
        }
      ],
      "name": "claimReportVoteFor",
      "outputs": [],
      "stateMutability": "nonpayable",
      "type": "function"
    },
    {
      "inputs": [
        {
          "internalType": "uint256",
          "name": "_claimID",
          "type": "uint256"
        }
      ],
      "name": "claimReportVotingResults",
      "outputs": [
        {
          "internalType": "enum InsuranceSystem.ClaimStatus",
          "name": "claimStatus",
          "type": "uint8"
        }
      ],
      "stateMutability": "nonpayable",
      "type": "function"
    },
    {
      "inputs": [],
      "name": "coverFees",
      "outputs": [
        {
          "internalType": "uint256",
          "name": "",
          "type": "uint256"
        }
      ],
      "stateMutability": "view",
      "type": "function"
    },
    {
      "inputs": [],
      "name": "depositCapital",
      "outputs": [],
      "stateMutability": "payable",
      "type": "function"
    },
    {
      "inputs": [],
      "name": "depositCoverFees",
      "outputs": [],
      "stateMutability": "payable",
      "type": "function"
    },
    {
      "inputs": [
        {
          "internalType": "uint256",
          "name": "_claimId",
          "type": "uint256"
        }
      ],
      "name": "getClaimAmount",
      "outputs": [],
      "stateMutability": "nonpayable",
      "type": "function"
    },
    {
      "inputs": [
        {
          "internalType": "uint256",
          "name": "_claimID",
          "type": "uint256"
        }
      ],
      "name": "getclaim",
      "outputs": [
        {
          "internalType": "enum InsuranceSystem.ClaimStatus",
          "name": "",
          "type": "uint8"
        }
      ],
      "stateMutability": "view",
      "type": "function"
    },
    {
      "inputs": [
        {
          "internalType": "address",
          "name": "",
          "type": "address"
        }
      ],
      "name": "holdersDetailsIpfsHash",
      "outputs": [
        {
          "internalType": "string",
          "name": "",
          "type": "string"
        }
      ],
      "stateMutability": "view",
      "type": "function"
    },
    {
      "inputs": [],
      "name": "investorToken",
      "outputs": [
        {
          "internalType": "contract InvestorToken",
          "name": "",
          "type": "address"
        }
      ],
      "stateMutability": "view",
      "type": "function"
    },
    {
      "inputs": [
        {
          "internalType": "uint256",
          "name": "_numberOftokens",
          "type": "uint256"
        }
      ],
      "name": "stakeTokens",
      "outputs": [],
      "stateMutability": "nonpayable",
      "type": "function"
    },
    {
      "inputs": [
        {
          "internalType": "string",
          "name": "_claimIpfs",
          "type": "string"
        }
      ],
      "name": "submitClaim",
      "outputs": [
        {
          "internalType": "uint256",
          "name": "",
          "type": "uint256"
        }
      ],
      "stateMutability": "nonpayable",
      "type": "function"
    },
    {
      "inputs": [
        {
          "internalType": "string",
          "name": "_holderDetailsipfsHash",
          "type": "string"
        }
      ],
      "name": "submitPolicyHolder",
      "outputs": [],
      "stateMutability": "nonpayable",
      "type": "function"
    },
    {
      "inputs": [],
      "name": "totalStakedTokens",
      "outputs": [
        {
          "internalType": "uint256",
          "name": "",
          "type": "uint256"
        }
      ],
      "stateMutability": "view",
      "type": "function"
    },
    {
      "inputs": [
        {
          "internalType": "uint256",
          "name": "_numberOftokens",
          "type": "uint256"
        }
      ],
      "name": "unstakeTokens",
      "outputs": [],
      "stateMutability": "nonpayable",
      "type": "function"
    },
    {
      "inputs": [],
      "name": "vote",
      "outputs": [],
      "stateMutability": "nonpayable",
      "type": "function"
    },
    {
      "inputs": [
        {
          "internalType": "uint256",
          "name": "_claimId",
          "type": "uint256"
        }
      ],
      "name": "voteAgainst",
      "outputs": [],
      "stateMutability": "nonpayable",
      "type": "function"
    },
    {
      "inputs": [
        {
          "internalType": "uint256",
          "name": "_claimId",
          "type": "uint256"
        }
      ],
      "name": "votefor",
      "outputs": [],
      "stateMutability": "nonpayable",
      "type": "function"
    },
    {
      "inputs": [
        {
          "internalType": "uint256",
          "name": "_amount",
          "type": "uint256"
        }
      ],
      "name": "withdrawCapital",
      "outputs": [],
      "stateMutability": "nonpayable",
      "type": "function"
    },
    {
      "inputs": [
        {
          "internalType": "uint256",
          "name": "_amount",
          "type": "uint256"
        }
      ],
      "name": "withdrawClaimTokens",
      "outputs": [],
      "stateMutability": "nonpayable",
      "type": "function"
    }
  ],
  "bytecode": "0x608060405260006004553480156200001657600080fd5b50604051620041f0380380620041f083398181016040528101906200003c9190620000dc565b816000806101000a81548173ffffffffffffffffffffffffffffffffffffffff021916908373ffffffffffffffffffffffffffffffffffffffff16021790555080600160006101000a81548173ffffffffffffffffffffffffffffffffffffffff021916908373ffffffffffffffffffffffffffffffffffffffff16021790555050506200016b565b600081519050620000d68162000151565b92915050565b60008060408385031215620000f057600080fd5b60006200010085828601620000c5565b92505060206200011385828601620000c5565b9150509250929050565b60006200012a8262000131565b9050919050565b600073ffffffffffffffffffffffffffffffffffffffff82169050919050565b6200015c816200011d565b81146200016857600080fd5b50565b614075806200017b6000396000f3fe6080604052600436106101b75760003560e01c80637547c7a3116100ec5780639da1e3e71161008a578063c9fcc00b11610064578063c9fcc00b146105ac578063cef63600146105d7578063d95b0a1214610600578063fb9ae13114610629576101b7565b80639da1e3e71461051d578063b3731c6514610546578063c6329f131461056f576101b7565b80638410c893116100c65780638410c8931461045157806385c74f291461048e5780638763792e146104b75780638e71040e146104f4576101b7565b80637547c7a3146103f357806380d8c98f1461041c578063830953ab14610426576101b7565b8063570678be1161015957806361808ae01161013357806361808ae01461037e578063632a9a52146103a957806372ef6d0d146103c0578063750e443a146103ca576101b7565b8063570678be146103035780635b426bbb1461032c578063608e4dd014610355576101b7565b80633c1459da116101955780633c1459da146102685780633e985b7c146102935780634b6f84661461029d5780635292e4e8146102da576101b7565b8063395efbb4146101bc5780633adc862b146101f95780633ae732591461023d575b600080fd5b3480156101c857600080fd5b506101e360048036038101906101de919061369d565b610666565b6040516101f09190613974565b60405180910390f35b34801561020557600080fd5b50610220600480360381019061021b9190613707565b610686565b604051610234989796959493929190613a02565b60405180910390f35b34801561024957600080fd5b50610252610904565b60405161025f9190613b18565b60405180910390f35b34801561027457600080fd5b5061027d61090a565b60405161028a9190613b18565b60405180910390f35b61029b610916565b005b3480156102a957600080fd5b506102c460048036038101906102bf9190613707565b610ab3565b6040516102d191906139c5565b60405180910390f35b3480156102e657600080fd5b5061030160048036038101906102fc9190613707565b610ae0565b005b34801561030f57600080fd5b5061032a600480360381019061032591906136c6565b610e7e565b005b34801561033857600080fd5b50610353600480360381019061034e9190613707565b610ed5565b005b34801561036157600080fd5b5061037c60048036038101906103779190613707565b61131e565b005b34801561038a57600080fd5b5061039361156c565b6040516103a091906139aa565b60405180910390f35b3480156103b557600080fd5b506103be611590565b005b6103c86115aa565b005b3480156103d657600080fd5b506103f160048036038101906103ec9190613707565b6116f4565b005b3480156103ff57600080fd5b5061041a60048036038101906104159190613707565b611bf3565b005b610424611d07565b005b34801561043257600080fd5b5061043b611ea3565b6040516104489190613b18565b60405180910390f35b34801561045d57600080fd5b506104786004803603810190610473919061369d565b611eaf565b60405161048591906139e0565b60405180910390f35b34801561049a57600080fd5b506104b560048036038101906104b09190613707565b611f4f565b005b3480156104c357600080fd5b506104de60048036038101906104d99190613707565b6122ed565b6040516104eb91906139c5565b60405180910390f35b34801561050057600080fd5b5061051b60048036038101906105169190613707565b61253b565b005b34801561052957600080fd5b50610544600480360381019061053f9190613759565b612728565b005b34801561055257600080fd5b5061056d60048036038101906105689190613707565b6129a4565b005b34801561057b57600080fd5b50610596600480360381019061059191906136c6565b612a6f565b6040516105a39190613b18565b60405180910390f35b3480156105b857600080fd5b506105c1612f72565b6040516105ce919061398f565b60405180910390f35b3480156105e357600080fd5b506105fe60048036038101906105f99190613707565b612f98565b005b34801561060c57600080fd5b5061062760048036038101906106229190613707565b613180565b005b34801561063557600080fd5b50610650600480360381019061064b9190613707565b61336a565b60405161065d91906139c5565b60405180910390f35b60066020528060005260406000206000915054906101000a900460ff1681565b60056020528060005260406000206000915090508060000180546106a990613db1565b80601f01602080910402602001604051908101604052809291908181526020018280546106d590613db1565b80156107225780601f106106f757610100808354040283529160200191610722565b820191906000526020600020905b81548152906001019060200180831161070557829003601f168201915b50505050509080600101805461073790613db1565b80601f016020809104026020016040519081016040528092919081815260200182805461076390613db1565b80156107b05780601f10610785576101008083540402835291602001916107b0565b820191906000526020600020905b81548152906001019060200180831161079357829003601f168201915b5050505050908060020160009054906101000a900460ff169080600301604051806080016040529081600082015481526020016001820154815260200160028201548152602001600382015481525050908060070160009054906101000a900473ffffffffffffffffffffffffffffffffffffffff1690806008016040518060800160405290816000820154815260200160018201548152602001600282015481526020016003820154815250509080600c0160009054906101000a900460ff169080600d01805461088190613db1565b80601f01602080910402602001604051908101604052809291908181526020018280546108ad90613db1565b80156108fa5780601f106108cf576101008083540402835291602001916108fa565b820191906000526020600020905b8154815290600101906020018083116108dd57829003601f168201915b5050505050905088565b60035481565b670de0b6b3a764000081565b60008060009054906101000a900473ffffffffffffffffffffffffffffffffffffffff1673ffffffffffffffffffffffffffffffffffffffff166370a08231336040518263ffffffff1660e01b81526004016109729190613930565b60206040518083038186803b15801561098a57600080fd5b505afa15801561099e573d6000803e3d6000fd5b505050506040513d601f19601f820116820180604052508101906109c29190613730565b14610a02576040517f08c379a00000000000000000000000000000000000000000000000000000000081526004016109f990613af8565b60405180910390fd5b670de0b6b3a76400003411610a1657600080fd5b600160009054906101000a900473ffffffffffffffffffffffffffffffffffffffff1673ffffffffffffffffffffffffffffffffffffffff16631072cbea33606434610a629190613c2c565b6040518363ffffffff1660e01b8152600401610a7f92919061394b565b600060405180830381600087803b158015610a9957600080fd5b505af1158015610aad573d6000803e3d6000fd5b50505050565b600060056000838152602001908152602001600020600c0160009054906101000a900460ff169050919050565b6001600260003373ffffffffffffffffffffffffffffffffffffffff1673ffffffffffffffffffffffffffffffffffffffff1681526020019081526020016000205411610b2c57600080fd5b60001515600860003373ffffffffffffffffffffffffffffffffffffffff1673ffffffffffffffffffffffffffffffffffffffff16815260200190815260200160002060009054906101000a900460ff16151514610bbf576040517f08c379a0000000000000000000000000000000000000000000000000000000008152600401610bb690613a98565b60405180910390fd5b6000600160009054906101000a900473ffffffffffffffffffffffffffffffffffffffff1673ffffffffffffffffffffffffffffffffffffffff166370a08231336040518263ffffffff1660e01b8152600401610c1c9190613930565b60206040518083038186803b158015610c3457600080fd5b505afa158015610c48573d6000803e3d6000fd5b505050506040513d601f19601f82011682018060405250810190610c6c9190613730565b1415610cad576040517f08c379a0000000000000000000000000000000000000000000000000000000008152600401610ca490613ad8565b60405180910390fd5b803373ffffffffffffffffffffffffffffffffffffffff166005600083815260200190815260200160002060070160009054906101000a900473ffffffffffffffffffffffffffffffffffffffff1673ffffffffffffffffffffffffffffffffffffffff161415610d1d57600080fd5b8142600560008381526020019081526020016000206008016003015411610d4357600080fd5b600260003373ffffffffffffffffffffffffffffffffffffffff1673ffffffffffffffffffffffffffffffffffffffff16815260200190815260200160002054600560008581526020019081526020016000206008016001016000828254610dab9190613ba5565b92505081905550600260003373ffffffffffffffffffffffffffffffffffffffff1673ffffffffffffffffffffffffffffffffffffffff16815260200190815260200160002054600560008581526020019081526020016000206008016000016000828254610e1a9190613ba5565b925050819055506001600860003373ffffffffffffffffffffffffffffffffffffffff1673ffffffffffffffffffffffffffffffffffffffff16815260200190815260200160002060006101000a81548160ff021916908315150217905550505050565b80600760003373ffffffffffffffffffffffffffffffffffffffff1673ffffffffffffffffffffffffffffffffffffffff1681526020019081526020016000209080519060200190610ed1929190613553565b5050565b803373ffffffffffffffffffffffffffffffffffffffff166005600083815260200190815260200160002060070160009054906101000a900473ffffffffffffffffffffffffffffffffffffffff1673ffffffffffffffffffffffffffffffffffffffff161415610f4557600080fd5b8142600560008381526020019081526020016000206003016003015411610f6b57600080fd5b60008060009054906101000a900473ffffffffffffffffffffffffffffffffffffffff1673ffffffffffffffffffffffffffffffffffffffff166370a08231336040518263ffffffff1660e01b8152600401610fc79190613930565b60206040518083038186803b158015610fdf57600080fd5b505afa158015610ff3573d6000803e3d6000fd5b505050506040513d601f19601f820116820180604052508101906110179190613730565b1415611058576040517f08c379a000000000000000000000000000000000000000000000000000000000815260040161104f90613af8565b60405180910390fd5b60001515600860003373ffffffffffffffffffffffffffffffffffffffff1673ffffffffffffffffffffffffffffffffffffffff16815260200190815260200160002060009054906101000a900460ff161515146110eb576040517f08c379a00000000000000000000000000000000000000000000000000000000081526004016110e290613a98565b60405180910390fd5b670de0b6b3a764000060008054906101000a900473ffffffffffffffffffffffffffffffffffffffff1673ffffffffffffffffffffffffffffffffffffffff166370a08231336040518263ffffffff1660e01b815260040161114d9190613930565b60206040518083038186803b15801561116557600080fd5b505afa158015611179573d6000803e3d6000fd5b505050506040513d601f19601f8201168201806040525081019061119d9190613730565b6111a79190613bfb565b6005600085815260200190815260200160002060030160010160008282546111cf9190613ba5565b92505081905550670de0b6b3a764000060008054906101000a900473ffffffffffffffffffffffffffffffffffffffff1673ffffffffffffffffffffffffffffffffffffffff166370a08231336040518263ffffffff1660e01b81526004016112389190613930565b60206040518083038186803b15801561125057600080fd5b505afa158015611264573d6000803e3d6000fd5b505050506040513d601f19601f820116820180604052508101906112889190613730565b6112929190613bfb565b6005600085815260200190815260200160002060030160000160008282546112ba9190613ba5565b925050819055506001600860003373ffffffffffffffffffffffffffffffffffffffff1673ffffffffffffffffffffffffffffffffffffffff16815260200190815260200160002060006101000a81548160ff021916908315150217905550505050565b6000600160009054906101000a900473ffffffffffffffffffffffffffffffffffffffff1673ffffffffffffffffffffffffffffffffffffffff166370a08231336040518263ffffffff1660e01b815260040161137b9190613930565b60206040518083038186803b15801561139357600080fd5b505afa1580156113a7573d6000803e3d6000fd5b505050506040513d601f19601f820116820180604052508101906113cb9190613730565b141561140c576040517f08c379a000000000000000000000000000000000000000000000000000000000815260040161140390613ad8565b60405180910390fd5b6001600260003373ffffffffffffffffffffffffffffffffffffffff1673ffffffffffffffffffffffffffffffffffffffff168152602001908152602001600020541161145857600080fd5b600160009054906101000a900473ffffffffffffffffffffffffffffffffffffffff1673ffffffffffffffffffffffffffffffffffffffff16636c82a72633670de0b6b3a7640000846114ab9190613c2c565b6040518363ffffffff1660e01b81526004016114c892919061394b565b600060405180830381600087803b1580156114e257600080fd5b505af11580156114f6573d6000803e3d6000fd5b5050505080600260003373ffffffffffffffffffffffffffffffffffffffff1673ffffffffffffffffffffffffffffffffffffffff16815260200190815260200160002060008282546115499190613c86565b9250508190555080600360008282546115629190613c86565b9250508190555050565b60008054906101000a900473ffffffffffffffffffffffffffffffffffffffff1681565b600460008154809291906115a390613e14565b9190505550565b6000600760003373ffffffffffffffffffffffffffffffffffffffff1673ffffffffffffffffffffffffffffffffffffffff16815260200190815260200160002080546115f690613db1565b80601f016020809104026020016040519081016040528092919081815260200182805461162290613db1565b801561166f5780601f106116445761010080835404028352916020019161166f565b820191906000526020600020905b81548152906001019060200180831161165257829003601f168201915b5050505050905060008151141561168557600080fd5b670de0b6b3a7640000341461169957600080fd5b6001600660003373ffffffffffffffffffffffffffffffffffffffff1673ffffffffffffffffffffffffffffffffffffffff16815260200190815260200160002060006101000a81548160ff02191690831515021790555050565b803373ffffffffffffffffffffffffffffffffffffffff166005600083815260200190815260200160002060070160009054906101000a900473ffffffffffffffffffffffffffffffffffffffff1673ffffffffffffffffffffffffffffffffffffffff16141561176457600080fd5b814260056000838152602001908152602001600020600301600301541161178a57600080fd5b60008060009054906101000a900473ffffffffffffffffffffffffffffffffffffffff1673ffffffffffffffffffffffffffffffffffffffff166370a08231336040518263ffffffff1660e01b81526004016117e69190613930565b60206040518083038186803b1580156117fe57600080fd5b505afa158015611812573d6000803e3d6000fd5b505050506040513d601f19601f820116820180604052508101906118369190613730565b1415611877576040517f08c379a000000000000000000000000000000000000000000000000000000000815260040161186e90613af8565b60405180910390fd5b60001515600860003373ffffffffffffffffffffffffffffffffffffffff1673ffffffffffffffffffffffffffffffffffffffff16815260200190815260200160002060009054906101000a900460ff1615151461190a576040517f08c379a000000000000000000000000000000000000000000000000000000000815260040161190190613a98565b60405180910390fd5b60008060009054906101000a900473ffffffffffffffffffffffffffffffffffffffff1673ffffffffffffffffffffffffffffffffffffffff166370a08231336040518263ffffffff1660e01b81526004016119669190613930565b60206040518083038186803b15801561197e57600080fd5b505afa158015611992573d6000803e3d6000fd5b505050506040513d601f19601f820116820180604052508101906119b69190613730565b116119c057600080fd5b670de0b6b3a764000060008054906101000a900473ffffffffffffffffffffffffffffffffffffffff1673ffffffffffffffffffffffffffffffffffffffff166370a08231336040518263ffffffff1660e01b8152600401611a229190613930565b60206040518083038186803b158015611a3a57600080fd5b505afa158015611a4e573d6000803e3d6000fd5b505050506040513d601f19601f82011682018060405250810190611a729190613730565b611a7c9190613bfb565b600560008581526020019081526020016000206003016002016000828254611aa49190613ba5565b92505081905550670de0b6b3a764000060008054906101000a900473ffffffffffffffffffffffffffffffffffffffff1673ffffffffffffffffffffffffffffffffffffffff166370a08231336040518263ffffffff1660e01b8152600401611b0d9190613930565b60206040518083038186803b158015611b2557600080fd5b505afa158015611b39573d6000803e3d6000fd5b505050506040513d601f19601f82011682018060405250810190611b5d9190613730565b611b679190613bfb565b600560008581526020019081526020016000206003016000016000828254611b8f9190613ba5565b925050819055506001600860003373ffffffffffffffffffffffffffffffffffffffff1673ffffffffffffffffffffffffffffffffffffffff16815260200190815260200160002060006101000a81548160ff021916908315150217905550505050565b600160009054906101000a900473ffffffffffffffffffffffffffffffffffffffff1673ffffffffffffffffffffffffffffffffffffffff1663f739ed9e33670de0b6b3a764000084611c469190613c2c565b6040518363ffffffff1660e01b8152600401611c6392919061394b565b600060405180830381600087803b158015611c7d57600080fd5b505af1158015611c91573d6000803e3d6000fd5b5050505080600260003373ffffffffffffffffffffffffffffffffffffffff1673ffffffffffffffffffffffffffffffffffffffff1681526020019081526020016000206000828254611ce49190613ba5565b925050819055508060036000828254611cfd9190613ba5565b9250508190555050565b6000600160009054906101000a900473ffffffffffffffffffffffffffffffffffffffff1673ffffffffffffffffffffffffffffffffffffffff166370a08231336040518263ffffffff1660e01b8152600401611d649190613930565b60206040518083038186803b158015611d7c57600080fd5b505afa158015611d90573d6000803e3d6000fd5b505050506040513d601f19601f82011682018060405250810190611db49190613730565b14611df4576040517f08c379a0000000000000000000000000000000000000000000000000000000008152600401611deb90613ad8565b60405180910390fd5b670de0b6b3a76400003411611e0857600080fd5b60008054906101000a900473ffffffffffffffffffffffffffffffffffffffff1673ffffffffffffffffffffffffffffffffffffffff16631072cbea33606434611e529190613c2c565b6040518363ffffffff1660e01b8152600401611e6f92919061394b565b600060405180830381600087803b158015611e8957600080fd5b505af1158015611e9d573d6000803e3d6000fd5b50505050565b678ac7230489e8000081565b60076020528060005260406000206000915090508054611ece90613db1565b80601f0160208091040260200160405190810160405280929190818152602001828054611efa90613db1565b8015611f475780601f10611f1c57610100808354040283529160200191611f47565b820191906000526020600020905b815481529060010190602001808311611f2a57829003601f168201915b505050505081565b6001600260003373ffffffffffffffffffffffffffffffffffffffff1673ffffffffffffffffffffffffffffffffffffffff1681526020019081526020016000205411611f9b57600080fd5b60001515600860003373ffffffffffffffffffffffffffffffffffffffff1673ffffffffffffffffffffffffffffffffffffffff16815260200190815260200160002060009054906101000a900460ff1615151461202e576040517f08c379a000000000000000000000000000000000000000000000000000000000815260040161202590613a98565b60405180910390fd5b6000600160009054906101000a900473ffffffffffffffffffffffffffffffffffffffff1673ffffffffffffffffffffffffffffffffffffffff166370a08231336040518263ffffffff1660e01b815260040161208b9190613930565b60206040518083038186803b1580156120a357600080fd5b505afa1580156120b7573d6000803e3d6000fd5b505050506040513d601f19601f820116820180604052508101906120db9190613730565b141561211c576040517f08c379a000000000000000000000000000000000000000000000000000000000815260040161211390613ad8565b60405180910390fd5b803373ffffffffffffffffffffffffffffffffffffffff166005600083815260200190815260200160002060070160009054906101000a900473ffffffffffffffffffffffffffffffffffffffff1673ffffffffffffffffffffffffffffffffffffffff16141561218c57600080fd5b81426005600083815260200190815260200160002060080160030154116121b257600080fd5b600260003373ffffffffffffffffffffffffffffffffffffffff1673ffffffffffffffffffffffffffffffffffffffff1681526020019081526020016000205460056000858152602001908152602001600020600801600201600082825461221a9190613ba5565b92505081905550600260003373ffffffffffffffffffffffffffffffffffffffff1673ffffffffffffffffffffffffffffffffffffffff168152602001908152602001600020546005600085815260200190815260200160002060080160000160008282546122899190613ba5565b925050819055506001600860003373ffffffffffffffffffffffffffffffffffffffff1673ffffffffffffffffffffffffffffffffffffffff16815260200190815260200160002060006101000a81548160ff021916908315150217905550505050565b6000426005600084815260200190815260200160002060080160030154111561233b5760056000838152602001908152602001600020600c0160009054906101000a900460ff169050612536565b426005600084815260200190815260200160002060080160030154101561253557600060646005600085815260200190815260200160002060080160000154600560008681526020019081526020016000206008016001015461239e9190613bfb565b6123a89190613c2c565b9050604681106124a757600060056000858152602001908152602001600020600c0160006101000a81548160ff02191690836003811115612412577f4e487b7100000000000000000000000000000000000000000000000000000000600052602160045260246000fd5b021790555060006005600085815260200190815260200160002060020160006101000a81548160ff02191690836003811115612477577f4e487b7100000000000000000000000000000000000000000000000000000000600052602160045260246000fd5b021790555060056000848152602001908152602001600020600c0160009054906101000a900460ff169150612533565b600160056000858152602001908152602001600020600c0160006101000a81548160ff02191690836003811115612507577f4e487b7100000000000000000000000000000000000000000000000000000000600052602160045260246000fd5b021790555060056000848152602001908152602001600020600c0160009054906101000a900460ff1691505b505b5b919050565b6000600160009054906101000a900473ffffffffffffffffffffffffffffffffffffffff1673ffffffffffffffffffffffffffffffffffffffff166370a08231336040518263ffffffff1660e01b81526004016125989190613930565b60206040518083038186803b1580156125b057600080fd5b505afa1580156125c4573d6000803e3d6000fd5b505050506040513d601f19601f820116820180604052508101906125e89190613730565b1415612629576040517f08c379a000000000000000000000000000000000000000000000000000000000815260040161262090613ad8565b60405180910390fd5b600160009054906101000a900473ffffffffffffffffffffffffffffffffffffffff1673ffffffffffffffffffffffffffffffffffffffff16639dc29fac33670de0b6b3a76400008461267c9190613c2c565b6040518363ffffffff1660e01b815260040161269992919061394b565b600060405180830381600087803b1580156126b357600080fd5b505af11580156126c7573d6000803e3d6000fd5b505050503373ffffffffffffffffffffffffffffffffffffffff166108fc670de0b6b3a7640000836126f99190613c2c565b9081150290604051600060405180830381858888f19350505050158015612724573d6000803e3d6000fd5b5050565b6000600160009054906101000a900473ffffffffffffffffffffffffffffffffffffffff1673ffffffffffffffffffffffffffffffffffffffff166370a08231336040518263ffffffff1660e01b81526004016127859190613930565b60206040518083038186803b15801561279d57600080fd5b505afa1580156127b1573d6000803e3d6000fd5b505050506040513d601f19601f820116820180604052508101906127d59190613730565b1415612816576040517f08c379a000000000000000000000000000000000000000000000000000000000815260040161280d90613ad8565b60405180910390fd5b81600060056000838152602001908152602001600020600d01805461283a90613db1565b80601f016020809104026020016040519081016040528092919081815260200182805461286690613db1565b80156128b35780601f10612888576101008083540402835291602001916128b3565b820191906000526020600020905b81548152906001019060200180831161289657829003601f168201915b5050505050905060008151146128c857600080fd5b60008390506000815114156128dc57600080fd5b60006101f4426128ec9190613ba5565b90508460056000888152602001908152602001600020600d019080519060200190612918929190613553565b50806005600088815260200190815260200160002060080160030181905550600260056000888152602001908152602001600020600c0160006101000a81548160ff02191690836003811115612997577f4e487b7100000000000000000000000000000000000000000000000000000000600052602160045260246000fd5b0217905550505050505050565b803373ffffffffffffffffffffffffffffffffffffffff166005600083815260200190815260200160002060070160009054906101000a900473ffffffffffffffffffffffffffffffffffffffff1673ffffffffffffffffffffffffffffffffffffffff1614612a1357600080fd5b8142600560008381526020019081526020016000206008016003015410612a3957600080fd5b60006101f442612a499190613ba5565b905080600560008681526020019081526020016000206003016003018190555050505050565b600060011515600660003373ffffffffffffffffffffffffffffffffffffffff1673ffffffffffffffffffffffffffffffffffffffff16815260200190815260200160002060009054906101000a900460ff16151514612ace57600080fd5b6000600760003373ffffffffffffffffffffffffffffffffffffffff1673ffffffffffffffffffffffffffffffffffffffff1681526020019081526020016000208054612b1a90613db1565b80601f0160208091040260200160405190810160405280929190818152602001828054612b4690613db1565b8015612b935780601f10612b6857610100808354040283529160200191612b93565b820191906000526020600020905b815481529060010190602001808311612b7657829003601f168201915b50505050509050600081511415612ba957600080fd5b60046000815480929190612bbc90613e14565b9190505550604051806101000160405280848152602001600760003373ffffffffffffffffffffffffffffffffffffffff1673ffffffffffffffffffffffffffffffffffffffff1681526020019081526020016000208054612c1d90613db1565b80601f0160208091040260200160405190810160405280929190818152602001828054612c4990613db1565b8015612c965780601f10612c6b57610100808354040283529160200191612c96565b820191906000526020600020905b815481529060010190602001808311612c7957829003601f168201915b50505050508152602001600380811115612cd9577f4e487b7100000000000000000000000000000000000000000000000000000000600052602160045260246000fd5b81526020016040518060800160405280600081526020016000815260200160008152602001600081525081526020013373ffffffffffffffffffffffffffffffffffffffff168152602001604051806080016040528060008152602001600081526020016000815260200160008152508152602001600380811115612d87577f4e487b7100000000000000000000000000000000000000000000000000000000600052602160045260246000fd5b8152602001604051806020016040528060008152508152506005600060045481526020019081526020016000206000820151816000019080519060200190612dd0929190613553565b506020820151816001019080519060200190612ded929190613553565b5060408201518160020160006101000a81548160ff02191690836003811115612e3f577f4e487b7100000000000000000000000000000000000000000000000000000000600052602160045260246000fd5b021790555060608201518160030160008201518160000155602082015181600101556040820151816002015560608201518160030155505060808201518160070160006101000a81548173ffffffffffffffffffffffffffffffffffffffff021916908373ffffffffffffffffffffffffffffffffffffffff16021790555060a08201518160080160008201518160000155602082015181600101556040820151816002015560608201518160030155505060c082015181600c0160006101000a81548160ff02191690836003811115612f42577f4e487b7100000000000000000000000000000000000000000000000000000000600052602160045260246000fd5b021790555060e082015181600d019080519060200190612f63929190613553565b50905050600454915050919050565b600160009054906101000a900473ffffffffffffffffffffffffffffffffffffffff1681565b8042600560008381526020019081526020016000206003016003015410612ff4576040517f08c379a0000000000000000000000000000000000000000000000000000000008152600401612feb90613ab8565b60405180910390fd5b814260056000838152602001908152602001600020600801600301541061301a57600080fd5b823373ffffffffffffffffffffffffffffffffffffffff166005600083815260200190815260200160002060070160009054906101000a900473ffffffffffffffffffffffffffffffffffffffff1673ffffffffffffffffffffffffffffffffffffffff161461308957600080fd5b83600060038111156130c4577f4e487b7100000000000000000000000000000000000000000000000000000000600052602160045260246000fd5b6005600083815260200190815260200160002060020160009054906101000a900460ff166003811115613120577f4e487b7100000000000000000000000000000000000000000000000000000000600052602160045260246000fd5b1461312a57600080fd5b3373ffffffffffffffffffffffffffffffffffffffff166108fc678ac7230489e800009081150290604051600060405180830381858888f19350505050158015613178573d6000803e3d6000fd5b505050505050565b60008060009054906101000a900473ffffffffffffffffffffffffffffffffffffffff1673ffffffffffffffffffffffffffffffffffffffff166370a08231336040518263ffffffff1660e01b81526004016131dc9190613930565b60206040518083038186803b1580156131f457600080fd5b505afa158015613208573d6000803e3d6000fd5b505050506040513d601f19601f8201168201806040525081019061322c9190613730565b141561326d576040517f08c379a000000000000000000000000000000000000000000000000000000000815260040161326490613af8565b60405180910390fd5b60008054906101000a900473ffffffffffffffffffffffffffffffffffffffff1673ffffffffffffffffffffffffffffffffffffffff16639dc29fac33670de0b6b3a7640000846132be9190613c2c565b6040518363ffffffff1660e01b81526004016132db92919061394b565b600060405180830381600087803b1580156132f557600080fd5b505af1158015613309573d6000803e3d6000fd5b505050503373ffffffffffffffffffffffffffffffffffffffff166108fc670de0b6b3a76400008361333b9190613c2c565b9081150290604051600060405180830381858888f19350505050158015613366573d6000803e3d6000fd5b5050565b600042600560008481526020019081526020016000206003016003015411156133b8576005600083815260200190815260200160002060020160009054906101000a900460ff16905061354e565b426005600084815260200190815260200160002060030160030154101561354d57600060646005600085815260200190815260200160002060030160000154600560008681526020019081526020016000206003016001015461341b9190613bfb565b6134259190613c2c565b9050604681106134bf5760006005600085815260200190815260200160002060020160006101000a81548160ff0219169083600381111561348f577f4e487b7100000000000000000000000000000000000000000000000000000000600052602160045260246000fd5b02179055506005600084815260200190815260200160002060020160009054906101000a900460ff16915061354b565b60016005600085815260200190815260200160002060020160006101000a81548160ff0219169083600381111561351f577f4e487b7100000000000000000000000000000000000000000000000000000000600052602160045260246000fd5b02179055506005600084815260200190815260200160002060020160009054906101000a900460ff1691505b505b5b919050565b82805461355f90613db1565b90600052602060002090601f01602090048101928261358157600085556135c8565b82601f1061359a57805160ff19168380011785556135c8565b828001600101855582156135c8579182015b828111156135c75782518255916020019190600101906135ac565b5b5090506135d591906135d9565b5090565b5b808211156135f25760008160009055506001016135da565b5090565b600061360961360484613b58565b613b33565b90508281526020810184848401111561362157600080fd5b61362c848285613d6f565b509392505050565b60008135905061364381614011565b92915050565b600082601f83011261365a57600080fd5b813561366a8482602086016135f6565b91505092915050565b60008135905061368281614028565b92915050565b60008151905061369781614028565b92915050565b6000602082840312156136af57600080fd5b60006136bd84828501613634565b91505092915050565b6000602082840312156136d857600080fd5b600082013567ffffffffffffffff8111156136f257600080fd5b6136fe84828501613649565b91505092915050565b60006020828403121561371957600080fd5b600061372784828501613673565b91505092915050565b60006020828403121561374257600080fd5b600061375084828501613688565b91505092915050565b6000806040838503121561376c57600080fd5b600061377a85828601613673565b925050602083013567ffffffffffffffff81111561379757600080fd5b6137a385828601613649565b9150509250929050565b6137b681613cba565b82525050565b6137c581613ccc565b82525050565b6137d481613d15565b82525050565b6137e381613d39565b82525050565b6137f281613d5d565b82525050565b600061380382613b89565b61380d8185613b94565b935061381d818560208601613d7e565b61382681613f48565b840191505092915050565b600061383e601683613b94565b915061384982613f59565b602082019050919050565b6000613861601883613b94565b915061386c82613f82565b602082019050919050565b6000613884601d83613b94565b915061388f82613fab565b602082019050919050565b60006138a7601883613b94565b91506138b282613fd4565b602082019050919050565b6080820160008201516138d36000850182613912565b5060208201516138e66020850182613912565b5060408201516138f96040850182613912565b50606082015161390c6060850182613912565b50505050565b61391b81613d0b565b82525050565b61392a81613d0b565b82525050565b600060208201905061394560008301846137ad565b92915050565b600060408201905061396060008301856137ad565b61396d6020830184613921565b9392505050565b600060208201905061398960008301846137bc565b92915050565b60006020820190506139a460008301846137cb565b92915050565b60006020820190506139bf60008301846137da565b92915050565b60006020820190506139da60008301846137e9565b92915050565b600060208201905081810360008301526139fa81846137f8565b905092915050565b60006101c0820190508181036000830152613a1d818b6137f8565b90508181036020830152613a31818a6137f8565b9050613a4060408301896137e9565b613a4d60608301886138bd565b613a5a60e08301876137ad565b613a686101008301866138bd565b613a766101808301856137e9565b8181036101a0830152613a8981846137f8565b90509998505050505050505050565b60006020820190508181036000830152613ab181613831565b9050919050565b60006020820190508181036000830152613ad181613854565b9050919050565b60006020820190508181036000830152613af181613877565b9050919050565b60006020820190508181036000830152613b118161389a565b9050919050565b6000602082019050613b2d6000830184613921565b92915050565b6000613b3d613b4e565b9050613b498282613de3565b919050565b6000604051905090565b600067ffffffffffffffff821115613b7357613b72613f19565b5b613b7c82613f48565b9050602081019050919050565b600081519050919050565b600082825260208201905092915050565b6000613bb082613d0b565b9150613bbb83613d0b565b9250827fffffffffffffffffffffffffffffffffffffffffffffffffffffffffffffffff03821115613bf057613bef613e5d565b5b828201905092915050565b6000613c0682613d0b565b9150613c1183613d0b565b925082613c2157613c20613e8c565b5b828204905092915050565b6000613c3782613d0b565b9150613c4283613d0b565b9250817fffffffffffffffffffffffffffffffffffffffffffffffffffffffffffffffff0483118215151615613c7b57613c7a613e5d565b5b828202905092915050565b6000613c9182613d0b565b9150613c9c83613d0b565b925082821015613caf57613cae613e5d565b5b828203905092915050565b6000613cc582613ceb565b9050919050565b60008115159050919050565b6000819050613ce682613ffd565b919050565b600073ffffffffffffffffffffffffffffffffffffffff82169050919050565b6000819050919050565b6000613d2082613d27565b9050919050565b6000613d3282613ceb565b9050919050565b6000613d4482613d4b565b9050919050565b6000613d5682613ceb565b9050919050565b6000613d6882613cd8565b9050919050565b82818337600083830152505050565b60005b83811015613d9c578082015181840152602081019050613d81565b83811115613dab576000848401525b50505050565b60006002820490506001821680613dc957607f821691505b60208210811415613ddd57613ddc613eea565b5b50919050565b613dec82613f48565b810181811067ffffffffffffffff82111715613e0b57613e0a613f19565b5b80604052505050565b6000613e1f82613d0b565b91507fffffffffffffffffffffffffffffffffffffffffffffffffffffffffffffffff821415613e5257613e51613e5d565b5b600182019050919050565b7f4e487b7100000000000000000000000000000000000000000000000000000000600052601160045260246000fd5b7f4e487b7100000000000000000000000000000000000000000000000000000000600052601260045260246000fd5b7f4e487b7100000000000000000000000000000000000000000000000000000000600052602160045260246000fd5b7f4e487b7100000000000000000000000000000000000000000000000000000000600052602260045260246000fd5b7f4e487b7100000000000000000000000000000000000000000000000000000000600052604160045260246000fd5b6000601f19601f8301169050919050565b7f596f75204861766520616c726561647920766f74656400000000000000000000600082015250565b7f54686520766f74696e67206861736e6f7420656e656465640000000000000000600082015250565b7f596f7520617265206e6f7420616e20636c61696d204173736573736f72000000600082015250565b7f596f7520617265206e6f7420616e20496e766574736f72200000000000000000600082015250565b6004811061400e5761400d613ebb565b5b50565b61401a81613cba565b811461402557600080fd5b50565b61403181613d0b565b811461403c57600080fd5b5056fea2646970667358221220bb7d355e86b323bb19b21562d751fa1321f19415dcf0159b13a563ff477f466564736f6c63430008030033",
  "linkReferences": {},
  "deployedLinkReferences": {}
}