{
  "_format": "hh-sol-artifact-1",
  "contractName": "InvestorToken",
  "sourceName": "contracts/InvestorToken.sol",
  "abi": [
    {
      "inputs": [],
      "stateMutability": "nonpayable",
      "type": "constructor"
    },
    {
      "anonymous": false,
      "inputs": [
        {
          "indexed": true,
          "internalType": "address",
          "name": "owner",
          "type": "address"
        },
        {
          "indexed": true,
          "internalType": "address",
          "name": "spender",
          "type": "address"
        },
        {
          "indexed": false,
          "internalType": "uint256",
          "name": "value",
          "type": "uint256"
        }
      ],
      "name": "Approval",
      "type": "event"
    },
    {
      "anonymous": false,
      "inputs": [
        {
          "indexed": true,
          "internalType": "address",
          "name": "from",
          "type": "address"
        },
        {
          "indexed": true,
          "internalType": "address",
          "name": "to",
          "type": "address"
        },
        {
          "indexed": false,
          "internalType": "uint256",
          "name": "value",
          "type": "uint256"
        }
      ],
      "name": "Transfer",
      "type": "event"
    },
    {
      "inputs": [
        {
          "internalType": "address",
          "name": "owner",
          "type": "address"
        },
        {
          "internalType": "address",
          "name": "spender",
          "type": "address"
        }
      ],
      "name": "allowance",
      "outputs": [
        {
          "internalType": "uint256",
          "name": "",
          "type": "uint256"
        }
      ],
      "stateMutability": "view",
      "type": "function"
    },
    {
      "inputs": [
        {
          "internalType": "address",
          "name": "spender",
          "type": "address"
        },
        {
          "internalType": "uint256",
          "name": "amount",
          "type": "uint256"
        }
      ],
      "name": "approve",
      "outputs": [
        {
          "internalType": "bool",
          "name": "",
          "type": "bool"
        }
      ],
      "stateMutability": "nonpayable",
      "type": "function"
    },
    {
      "inputs": [
        {
          "internalType": "address",
          "name": "account",
          "type": "address"
        }
      ],
      "name": "balanceOf",
      "outputs": [
        {
          "internalType": "uint256",
          "name": "",
          "type": "uint256"
        }
      ],
      "stateMutability": "view",
      "type": "function"
    },
    {
      "inputs": [
        {
          "internalType": "address",
          "name": "_tokenholder",
          "type": "address"
        },
        {
          "internalType": "uint256",
          "name": "_amount",
          "type": "uint256"
        }
      ],
      "name": "burn",
      "outputs": [],
      "stateMutability": "nonpayable",
      "type": "function"
    },
    {
      "inputs": [],
      "name": "decimals",
      "outputs": [
        {
          "internalType": "uint8",
          "name": "",
          "type": "uint8"
        }
      ],
      "stateMutability": "view",
      "type": "function"
    },
    {
      "inputs": [
        {
          "internalType": "address",
          "name": "spender",
          "type": "address"
        },
        {
          "internalType": "uint256",
          "name": "subtractedValue",
          "type": "uint256"
        }
      ],
      "name": "decreaseAllowance",
      "outputs": [
        {
          "internalType": "bool",
          "name": "",
          "type": "bool"
        }
      ],
      "stateMutability": "nonpayable",
      "type": "function"
    },
    {
      "inputs": [
        {
          "internalType": "address",
          "name": "spender",
          "type": "address"
        },
        {
          "internalType": "uint256",
          "name": "addedValue",
          "type": "uint256"
        }
      ],
      "name": "increaseAllowance",
      "outputs": [
        {
          "internalType": "bool",
          "name": "",
          "type": "bool"
        }
      ],
      "stateMutability": "nonpayable",
      "type": "function"
    },
    {
      "inputs": [],
      "name": "minter",
      "outputs": [
        {
          "internalType": "address",
          "name": "",
          "type": "address"
        }
      ],
      "stateMutability": "view",
      "type": "function"
    },
    {
      "inputs": [],
      "name": "name",
      "outputs": [
        {
          "internalType": "string",
          "name": "",
          "type": "string"
        }
      ],
      "stateMutability": "view",
      "type": "function"
    },
    {
      "inputs": [],
      "name": "symbol",
      "outputs": [
        {
          "internalType": "string",
          "name": "",
          "type": "string"
        }
      ],
      "stateMutability": "view",
      "type": "function"
    },
    {
      "inputs": [],
      "name": "totalSupply",
      "outputs": [
        {
          "internalType": "uint256",
          "name": "",
          "type": "uint256"
        }
      ],
      "stateMutability": "view",
      "type": "function"
    },
    {
      "inputs": [
        {
          "internalType": "address",
          "name": "to",
          "type": "address"
        },
        {
          "internalType": "uint256",
          "name": "amount",
          "type": "uint256"
        }
      ],
      "name": "transfer",
      "outputs": [
        {
          "internalType": "bool",
          "name": "",
          "type": "bool"
        }
      ],
      "stateMutability": "nonpayable",
      "type": "function"
    },
    {
      "inputs": [
        {
          "internalType": "address",
          "name": "from",
          "type": "address"
        },
        {
          "internalType": "address",
          "name": "to",
          "type": "address"
        },
        {
          "internalType": "uint256",
          "name": "amount",
          "type": "uint256"
        }
      ],
      "name": "transferFrom",
      "outputs": [
        {
          "internalType": "bool",
          "name": "",
          "type": "bool"
        }
      ],
      "stateMutability": "nonpayable",
      "type": "function"
    },
    {
      "inputs": [
        {
          "internalType": "address",
          "name": "_buyer",
          "type": "address"
        },
        {
          "internalType": "uint256",
          "name": "amount",
          "type": "uint256"
        }
      ],
      "name": "transferToken",
      "outputs": [],
      "stateMutability": "nonpayable",
      "type": "function"
    }
  ],
  "bytecode": "0x60806040523480156200001157600080fd5b506040518060400160405280600e81526020017f496e766573746f7220546f6b656e0000000000000000000000000000000000008152506040518060400160405280600481526020017f49544b4e00000000000000000000000000000000000000000000000000000000815250816003908051906020019062000096929190620002ba565b508060049080519060200190620000af929190620002ba565b50505033600560006101000a81548173ffffffffffffffffffffffffffffffffffffffff021916908373ffffffffffffffffffffffffffffffffffffffff16021790555062000131600560009054906101000a900473ffffffffffffffffffffffffffffffffffffffff1669021e19e0c9bab24000006200013760201b60201c565b62000516565b600073ffffffffffffffffffffffffffffffffffffffff168273ffffffffffffffffffffffffffffffffffffffff161415620001aa576040517f08c379a0000000000000000000000000000000000000000000000000000000008152600401620001a190620003a2565b60405180910390fd5b620001be60008383620002b060201b60201c565b8060026000828254620001d29190620003f2565b92505081905550806000808473ffffffffffffffffffffffffffffffffffffffff1673ffffffffffffffffffffffffffffffffffffffff1681526020019081526020016000206000828254620002299190620003f2565b925050819055508173ffffffffffffffffffffffffffffffffffffffff16600073ffffffffffffffffffffffffffffffffffffffff167fddf252ad1be2c89b69c2b068fc378daa952ba7f163c4a11628f55a4df523b3ef83604051620002909190620003c4565b60405180910390a3620002ac60008383620002b560201b60201c565b5050565b505050565b505050565b828054620002c89062000459565b90600052602060002090601f016020900481019282620002ec576000855562000338565b82601f106200030757805160ff191683800117855562000338565b8280016001018555821562000338579182015b82811115620003375782518255916020019190600101906200031a565b5b5090506200034791906200034b565b5090565b5b80821115620003665760008160009055506001016200034c565b5090565b600062000379601f83620003e1565b91506200038682620004ed565b602082019050919050565b6200039c816200044f565b82525050565b60006020820190508181036000830152620003bd816200036a565b9050919050565b6000602082019050620003db600083018462000391565b92915050565b600082825260208201905092915050565b6000620003ff826200044f565b91506200040c836200044f565b9250827fffffffffffffffffffffffffffffffffffffffffffffffffffffffffffffffff038211156200044457620004436200048f565b5b828201905092915050565b6000819050919050565b600060028204905060018216806200047257607f821691505b60208210811415620004895762000488620004be565b5b50919050565b7f4e487b7100000000000000000000000000000000000000000000000000000000600052601160045260246000fd5b7f4e487b7100000000000000000000000000000000000000000000000000000000600052602260045260246000fd5b7f45524332303a206d696e7420746f20746865207a65726f206164647265737300600082015250565b61178e80620005266000396000f3fe608060405234801561001057600080fd5b50600436106100ea5760003560e01c8063395093511161008c5780639dc29fac116100665780639dc29fac14610261578063a457c2d71461027d578063a9059cbb146102ad578063dd62ed3e146102dd576100ea565b806339509351146101e357806370a082311461021357806395d89b4114610243576100ea565b80631072cbea116100c85780631072cbea1461015b57806318160ddd1461017757806323b872dd14610195578063313ce567146101c5576100ea565b806306fdde03146100ef578063075461721461010d578063095ea7b31461012b575b600080fd5b6100f761030d565b6040516101049190611142565b60405180910390f35b61011561039f565b604051610122919061110c565b60405180910390f35b61014560048036038101906101409190610f20565b6103c5565b6040516101529190611127565b60405180910390f35b61017560048036038101906101709190610f20565b6103e8565b005b61017f610419565b60405161018c9190611284565b60405180910390f35b6101af60048036038101906101aa9190610ed1565b610423565b6040516101bc9190611127565b60405180910390f35b6101cd610452565b6040516101da919061129f565b60405180910390f35b6101fd60048036038101906101f89190610f20565b61045b565b60405161020a9190611127565b60405180910390f35b61022d60048036038101906102289190610e6c565b610505565b60405161023a9190611284565b60405180910390f35b61024b61054d565b6040516102589190611142565b60405180910390f35b61027b60048036038101906102769190610f20565b6105df565b005b61029760048036038101906102929190610f20565b6105ed565b6040516102a49190611127565b60405180910390f35b6102c760048036038101906102c29190610f20565b6106d7565b6040516102d49190611127565b60405180910390f35b6102f760048036038101906102f29190610e95565b6106fa565b6040516103049190611284565b60405180910390f35b60606003805461031c906113e8565b80601f0160208091040260200160405190810160405280929190818152602001828054610348906113e8565b80156103955780601f1061036a57610100808354040283529160200191610395565b820191906000526020600020905b81548152906001019060200180831161037857829003601f168201915b5050505050905090565b600560009054906101000a900473ffffffffffffffffffffffffffffffffffffffff1681565b6000806103d0610781565b90506103dd818585610789565b600191505092915050565b610415600560009054906101000a900473ffffffffffffffffffffffffffffffffffffffff168383610954565b5050565b6000600254905090565b60008061042e610781565b905061043b858285610bd5565b610446858585610954565b60019150509392505050565b60006012905090565b600080610466610781565b90506104fa818585600160008673ffffffffffffffffffffffffffffffffffffffff1673ffffffffffffffffffffffffffffffffffffffff16815260200190815260200160002060008973ffffffffffffffffffffffffffffffffffffffff1673ffffffffffffffffffffffffffffffffffffffff168152602001908152602001600020546104f591906112d6565b610789565b600191505092915050565b60008060008373ffffffffffffffffffffffffffffffffffffffff1673ffffffffffffffffffffffffffffffffffffffff168152602001908152602001600020549050919050565b60606004805461055c906113e8565b80601f0160208091040260200160405190810160405280929190818152602001828054610588906113e8565b80156105d55780601f106105aa576101008083540402835291602001916105d5565b820191906000526020600020905b8154815290600101906020018083116105b857829003601f168201915b5050505050905090565b6105e98282610c61565b5050565b6000806105f8610781565b90506000600160008373ffffffffffffffffffffffffffffffffffffffff1673ffffffffffffffffffffffffffffffffffffffff16815260200190815260200160002060008673ffffffffffffffffffffffffffffffffffffffff1673ffffffffffffffffffffffffffffffffffffffff168152602001908152602001600020549050838110156106be576040517f08c379a00000000000000000000000000000000000000000000000000000000081526004016106b590611264565b60405180910390fd5b6106cb8286868403610789565b60019250505092915050565b6000806106e2610781565b90506106ef818585610954565b600191505092915050565b6000600160008473ffffffffffffffffffffffffffffffffffffffff1673ffffffffffffffffffffffffffffffffffffffff16815260200190815260200160002060008373ffffffffffffffffffffffffffffffffffffffff1673ffffffffffffffffffffffffffffffffffffffff16815260200190815260200160002054905092915050565b600033905090565b600073ffffffffffffffffffffffffffffffffffffffff168373ffffffffffffffffffffffffffffffffffffffff1614156107f9576040517f08c379a00000000000000000000000000000000000000000000000000000000081526004016107f090611244565b60405180910390fd5b600073ffffffffffffffffffffffffffffffffffffffff168273ffffffffffffffffffffffffffffffffffffffff161415610869576040517f08c379a0000000000000000000000000000000000000000000000000000000008152600401610860906111a4565b60405180910390fd5b80600160008573ffffffffffffffffffffffffffffffffffffffff1673ffffffffffffffffffffffffffffffffffffffff16815260200190815260200160002060008473ffffffffffffffffffffffffffffffffffffffff1673ffffffffffffffffffffffffffffffffffffffff168152602001908152602001600020819055508173ffffffffffffffffffffffffffffffffffffffff168373ffffffffffffffffffffffffffffffffffffffff167f8c5be1e5ebec7d5bd14f71427d1e84f3dd0314c0f7b2291e5b200ac8c7c3b925836040516109479190611284565b60405180910390a3505050565b600073ffffffffffffffffffffffffffffffffffffffff168373ffffffffffffffffffffffffffffffffffffffff1614156109c4576040517f08c379a00000000000000000000000000000000000000000000000000000000081526004016109bb90611224565b60405180910390fd5b600073ffffffffffffffffffffffffffffffffffffffff168273ffffffffffffffffffffffffffffffffffffffff161415610a34576040517f08c379a0000000000000000000000000000000000000000000000000000000008152600401610a2b90611164565b60405180910390fd5b610a3f838383610e38565b60008060008573ffffffffffffffffffffffffffffffffffffffff1673ffffffffffffffffffffffffffffffffffffffff16815260200190815260200160002054905081811015610ac5576040517f08c379a0000000000000000000000000000000000000000000000000000000008152600401610abc906111e4565b60405180910390fd5b8181036000808673ffffffffffffffffffffffffffffffffffffffff1673ffffffffffffffffffffffffffffffffffffffff16815260200190815260200160002081905550816000808573ffffffffffffffffffffffffffffffffffffffff1673ffffffffffffffffffffffffffffffffffffffff1681526020019081526020016000206000828254610b5891906112d6565b925050819055508273ffffffffffffffffffffffffffffffffffffffff168473ffffffffffffffffffffffffffffffffffffffff167fddf252ad1be2c89b69c2b068fc378daa952ba7f163c4a11628f55a4df523b3ef84604051610bbc9190611284565b60405180910390a3610bcf848484610e3d565b50505050565b6000610be184846106fa565b90507fffffffffffffffffffffffffffffffffffffffffffffffffffffffffffffffff8114610c5b5781811015610c4d576040517f08c379a0000000000000000000000000000000000000000000000000000000008152600401610c44906111c4565b60405180910390fd5b610c5a8484848403610789565b5b50505050565b600073ffffffffffffffffffffffffffffffffffffffff168273ffffffffffffffffffffffffffffffffffffffff161415610cd1576040517f08c379a0000000000000000000000000000000000000000000000000000000008152600401610cc890611204565b60405180910390fd5b610cdd82600083610e38565b60008060008473ffffffffffffffffffffffffffffffffffffffff1673ffffffffffffffffffffffffffffffffffffffff16815260200190815260200160002054905081811015610d63576040517f08c379a0000000000000000000000000000000000000000000000000000000008152600401610d5a90611184565b60405180910390fd5b8181036000808573ffffffffffffffffffffffffffffffffffffffff1673ffffffffffffffffffffffffffffffffffffffff168152602001908152602001600020819055508160026000828254610dba919061132c565b92505081905550600073ffffffffffffffffffffffffffffffffffffffff168373ffffffffffffffffffffffffffffffffffffffff167fddf252ad1be2c89b69c2b068fc378daa952ba7f163c4a11628f55a4df523b3ef84604051610e1f9190611284565b60405180910390a3610e3383600084610e3d565b505050565b505050565b505050565b600081359050610e518161172a565b92915050565b600081359050610e6681611741565b92915050565b600060208284031215610e7e57600080fd5b6000610e8c84828501610e42565b91505092915050565b60008060408385031215610ea857600080fd5b6000610eb685828601610e42565b9250506020610ec785828601610e42565b9150509250929050565b600080600060608486031215610ee657600080fd5b6000610ef486828701610e42565b9350506020610f0586828701610e42565b9250506040610f1686828701610e57565b9150509250925092565b60008060408385031215610f3357600080fd5b6000610f4185828601610e42565b9250506020610f5285828601610e57565b9150509250929050565b610f6581611360565b82525050565b610f7481611372565b82525050565b6000610f85826112ba565b610f8f81856112c5565b9350610f9f8185602086016113b5565b610fa881611478565b840191505092915050565b6000610fc06023836112c5565b9150610fcb82611489565b604082019050919050565b6000610fe36022836112c5565b9150610fee826114d8565b604082019050919050565b60006110066022836112c5565b915061101182611527565b604082019050919050565b6000611029601d836112c5565b915061103482611576565b602082019050919050565b600061104c6026836112c5565b91506110578261159f565b604082019050919050565b600061106f6021836112c5565b915061107a826115ee565b604082019050919050565b60006110926025836112c5565b915061109d8261163d565b604082019050919050565b60006110b56024836112c5565b91506110c08261168c565b604082019050919050565b60006110d86025836112c5565b91506110e3826116db565b604082019050919050565b6110f78161139e565b82525050565b611106816113a8565b82525050565b60006020820190506111216000830184610f5c565b92915050565b600060208201905061113c6000830184610f6b565b92915050565b6000602082019050818103600083015261115c8184610f7a565b905092915050565b6000602082019050818103600083015261117d81610fb3565b9050919050565b6000602082019050818103600083015261119d81610fd6565b9050919050565b600060208201905081810360008301526111bd81610ff9565b9050919050565b600060208201905081810360008301526111dd8161101c565b9050919050565b600060208201905081810360008301526111fd8161103f565b9050919050565b6000602082019050818103600083015261121d81611062565b9050919050565b6000602082019050818103600083015261123d81611085565b9050919050565b6000602082019050818103600083015261125d816110a8565b9050919050565b6000602082019050818103600083015261127d816110cb565b9050919050565b600060208201905061129960008301846110ee565b92915050565b60006020820190506112b460008301846110fd565b92915050565b600081519050919050565b600082825260208201905092915050565b60006112e18261139e565b91506112ec8361139e565b9250827fffffffffffffffffffffffffffffffffffffffffffffffffffffffffffffffff038211156113215761132061141a565b5b828201905092915050565b60006113378261139e565b91506113428361139e565b9250828210156113555761135461141a565b5b828203905092915050565b600061136b8261137e565b9050919050565b60008115159050919050565b600073ffffffffffffffffffffffffffffffffffffffff82169050919050565b6000819050919050565b600060ff82169050919050565b60005b838110156113d35780820151818401526020810190506113b8565b838111156113e2576000848401525b50505050565b6000600282049050600182168061140057607f821691505b6020821081141561141457611413611449565b5b50919050565b7f4e487b7100000000000000000000000000000000000000000000000000000000600052601160045260246000fd5b7f4e487b7100000000000000000000000000000000000000000000000000000000600052602260045260246000fd5b6000601f19601f8301169050919050565b7f45524332303a207472616e7366657220746f20746865207a65726f206164647260008201527f6573730000000000000000000000000000000000000000000000000000000000602082015250565b7f45524332303a206275726e20616d6f756e7420657863656564732062616c616e60008201527f6365000000000000000000000000000000000000000000000000000000000000602082015250565b7f45524332303a20617070726f766520746f20746865207a65726f20616464726560008201527f7373000000000000000000000000000000000000000000000000000000000000602082015250565b7f45524332303a20696e73756666696369656e7420616c6c6f77616e6365000000600082015250565b7f45524332303a207472616e7366657220616d6f756e742065786365656473206260008201527f616c616e63650000000000000000000000000000000000000000000000000000602082015250565b7f45524332303a206275726e2066726f6d20746865207a65726f2061646472657360008201527f7300000000000000000000000000000000000000000000000000000000000000602082015250565b7f45524332303a207472616e736665722066726f6d20746865207a65726f20616460008201527f6472657373000000000000000000000000000000000000000000000000000000602082015250565b7f45524332303a20617070726f76652066726f6d20746865207a65726f2061646460008201527f7265737300000000000000000000000000000000000000000000000000000000602082015250565b7f45524332303a2064656372656173656420616c6c6f77616e63652062656c6f7760008201527f207a65726f000000000000000000000000000000000000000000000000000000602082015250565b61173381611360565b811461173e57600080fd5b50565b61174a8161139e565b811461175557600080fd5b5056fea2646970667358221220e0985eaa9b946e7267395b6cafac49f2d3c4177367e536c4c903585ba784c52c64736f6c63430008030033",
  "linkReferences": {},
  "deployedLinkReferences": {}
}