{
  "_format": "hh-sol-artifact-1",
  "contractName": "ClaimAssessorToken",
  "sourceName": "contracts/ClaimAssessorToken.sol",
  "abi": [
    {
      "inputs": [],
      "stateMutability": "nonpayable",
      "type": "constructor"
    },
    {
      "anonymous": false,
      "inputs": [
        {
          "indexed": true,
          "internalType": "address",
          "name": "owner",
          "type": "address"
        },
        {
          "indexed": true,
          "internalType": "address",
          "name": "spender",
          "type": "address"
        },
        {
          "indexed": false,
          "internalType": "uint256",
          "name": "value",
          "type": "uint256"
        }
      ],
      "name": "Approval",
      "type": "event"
    },
    {
      "anonymous": false,
      "inputs": [
        {
          "indexed": true,
          "internalType": "address",
          "name": "from",
          "type": "address"
        },
        {
          "indexed": true,
          "internalType": "address",
          "name": "to",
          "type": "address"
        },
        {
          "indexed": false,
          "internalType": "uint256",
          "name": "value",
          "type": "uint256"
        }
      ],
      "name": "Transfer",
      "type": "event"
    },
    {
      "inputs": [
        {
          "internalType": "address",
          "name": "owner",
          "type": "address"
        },
        {
          "internalType": "address",
          "name": "spender",
          "type": "address"
        }
      ],
      "name": "allowance",
      "outputs": [
        {
          "internalType": "uint256",
          "name": "",
          "type": "uint256"
        }
      ],
      "stateMutability": "view",
      "type": "function"
    },
    {
      "inputs": [
        {
          "internalType": "address",
          "name": "spender",
          "type": "address"
        },
        {
          "internalType": "uint256",
          "name": "amount",
          "type": "uint256"
        }
      ],
      "name": "approve",
      "outputs": [
        {
          "internalType": "bool",
          "name": "",
          "type": "bool"
        }
      ],
      "stateMutability": "nonpayable",
      "type": "function"
    },
    {
      "inputs": [
        {
          "internalType": "address",
          "name": "account",
          "type": "address"
        }
      ],
      "name": "balanceOf",
      "outputs": [
        {
          "internalType": "uint256",
          "name": "",
          "type": "uint256"
        }
      ],
      "stateMutability": "view",
      "type": "function"
    },
    {
      "inputs": [
        {
          "internalType": "address",
          "name": "_tokenholder",
          "type": "address"
        },
        {
          "internalType": "uint256",
          "name": "_amount",
          "type": "uint256"
        }
      ],
      "name": "burn",
      "outputs": [],
      "stateMutability": "nonpayable",
      "type": "function"
    },
    {
      "inputs": [],
      "name": "decimals",
      "outputs": [
        {
          "internalType": "uint8",
          "name": "",
          "type": "uint8"
        }
      ],
      "stateMutability": "view",
      "type": "function"
    },
    {
      "inputs": [
        {
          "internalType": "address",
          "name": "spender",
          "type": "address"
        },
        {
          "internalType": "uint256",
          "name": "subtractedValue",
          "type": "uint256"
        }
      ],
      "name": "decreaseAllowance",
      "outputs": [
        {
          "internalType": "bool",
          "name": "",
          "type": "bool"
        }
      ],
      "stateMutability": "nonpayable",
      "type": "function"
    },
    {
      "inputs": [
        {
          "internalType": "address",
          "name": "spender",
          "type": "address"
        },
        {
          "internalType": "uint256",
          "name": "addedValue",
          "type": "uint256"
        }
      ],
      "name": "increaseAllowance",
      "outputs": [
        {
          "internalType": "bool",
          "name": "",
          "type": "bool"
        }
      ],
      "stateMutability": "nonpayable",
      "type": "function"
    },
    {
      "inputs": [],
      "name": "minter",
      "outputs": [
        {
          "internalType": "address",
          "name": "",
          "type": "address"
        }
      ],
      "stateMutability": "view",
      "type": "function"
    },
    {
      "inputs": [],
      "name": "name",
      "outputs": [
        {
          "internalType": "string",
          "name": "",
          "type": "string"
        }
      ],
      "stateMutability": "view",
      "type": "function"
    },
    {
      "inputs": [
        {
          "internalType": "address",
          "name": "staker",
          "type": "address"
        },
        {
          "internalType": "uint256",
          "name": "numberOfTokens",
          "type": "uint256"
        }
      ],
      "name": "stakeToken",
      "outputs": [],
      "stateMutability": "nonpayable",
      "type": "function"
    },
    {
      "inputs": [],
      "name": "symbol",
      "outputs": [
        {
          "internalType": "string",
          "name": "",
          "type": "string"
        }
      ],
      "stateMutability": "view",
      "type": "function"
    },
    {
      "inputs": [],
      "name": "totalSupply",
      "outputs": [
        {
          "internalType": "uint256",
          "name": "",
          "type": "uint256"
        }
      ],
      "stateMutability": "view",
      "type": "function"
    },
    {
      "inputs": [
        {
          "internalType": "address",
          "name": "to",
          "type": "address"
        },
        {
          "internalType": "uint256",
          "name": "amount",
          "type": "uint256"
        }
      ],
      "name": "transfer",
      "outputs": [
        {
          "internalType": "bool",
          "name": "",
          "type": "bool"
        }
      ],
      "stateMutability": "nonpayable",
      "type": "function"
    },
    {
      "inputs": [
        {
          "internalType": "address",
          "name": "from",
          "type": "address"
        },
        {
          "internalType": "address",
          "name": "to",
          "type": "address"
        },
        {
          "internalType": "uint256",
          "name": "amount",
          "type": "uint256"
        }
      ],
      "name": "transferFrom",
      "outputs": [
        {
          "internalType": "bool",
          "name": "",
          "type": "bool"
        }
      ],
      "stateMutability": "nonpayable",
      "type": "function"
    },
    {
      "inputs": [
        {
          "internalType": "address",
          "name": "_buyer",
          "type": "address"
        },
        {
          "internalType": "uint256",
          "name": "amount",
          "type": "uint256"
        }
      ],
      "name": "transferToken",
      "outputs": [],
      "stateMutability": "nonpayable",
      "type": "function"
    },
    {
      "inputs": [
        {
          "internalType": "address",
          "name": "staker",
          "type": "address"
        },
        {
          "internalType": "uint256",
          "name": "numberOfTokens",
          "type": "uint256"
        }
      ],
      "name": "unstakeToken",
      "outputs": [],
      "stateMutability": "nonpayable",
      "type": "function"
    }
  ],
  "bytecode": "0x60806040523480156200001157600080fd5b506040518060400160405280601381526020017f436c61696d2041737365736f7220546f6b656e000000000000000000000000008152506040518060400160405280600481526020017f43544b4e00000000000000000000000000000000000000000000000000000000815250816003908051906020019062000096929190620002ba565b508060049080519060200190620000af929190620002ba565b50505033600560006101000a81548173ffffffffffffffffffffffffffffffffffffffff021916908373ffffffffffffffffffffffffffffffffffffffff16021790555062000131600560009054906101000a900473ffffffffffffffffffffffffffffffffffffffff1669021e19e0c9bab24000006200013760201b60201c565b62000516565b600073ffffffffffffffffffffffffffffffffffffffff168273ffffffffffffffffffffffffffffffffffffffff161415620001aa576040517f08c379a0000000000000000000000000000000000000000000000000000000008152600401620001a190620003a2565b60405180910390fd5b620001be60008383620002b060201b60201c565b8060026000828254620001d29190620003f2565b92505081905550806000808473ffffffffffffffffffffffffffffffffffffffff1673ffffffffffffffffffffffffffffffffffffffff1681526020019081526020016000206000828254620002299190620003f2565b925050819055508173ffffffffffffffffffffffffffffffffffffffff16600073ffffffffffffffffffffffffffffffffffffffff167fddf252ad1be2c89b69c2b068fc378daa952ba7f163c4a11628f55a4df523b3ef83604051620002909190620003c4565b60405180910390a3620002ac60008383620002b560201b60201c565b5050565b505050565b505050565b828054620002c89062000459565b90600052602060002090601f016020900481019282620002ec576000855562000338565b82601f106200030757805160ff191683800117855562000338565b8280016001018555821562000338579182015b82811115620003375782518255916020019190600101906200031a565b5b5090506200034791906200034b565b5090565b5b80821115620003665760008160009055506001016200034c565b5090565b600062000379601f83620003e1565b91506200038682620004ed565b602082019050919050565b6200039c816200044f565b82525050565b60006020820190508181036000830152620003bd816200036a565b9050919050565b6000602082019050620003db600083018462000391565b92915050565b600082825260208201905092915050565b6000620003ff826200044f565b91506200040c836200044f565b9250827fffffffffffffffffffffffffffffffffffffffffffffffffffffffffffffffff038211156200044457620004436200048f565b5b828201905092915050565b6000819050919050565b600060028204905060018216806200047257607f821691505b60208210811415620004895762000488620004be565b5b50919050565b7f4e487b7100000000000000000000000000000000000000000000000000000000600052601160045260246000fd5b7f4e487b7100000000000000000000000000000000000000000000000000000000600052602260045260246000fd5b7f45524332303a206d696e7420746f20746865207a65726f206164647265737300600082015250565b61181b80620005266000396000f3fe608060405234801561001057600080fd5b50600436106101005760003560e01c80636c82a72611610097578063a457c2d711610066578063a457c2d7146102af578063a9059cbb146102df578063dd62ed3e1461030f578063f739ed9e1461033f57610100565b80636c82a7261461022957806370a082311461024557806395d89b41146102755780639dc29fac1461029357610100565b806318160ddd116100d357806318160ddd1461018d57806323b872dd146101ab578063313ce567146101db57806339509351146101f957610100565b806306fdde03146101055780630754617214610123578063095ea7b3146101415780631072cbea14610171575b600080fd5b61010d61035b565b60405161011a91906111cf565b60405180910390f35b61012b6103ed565b6040516101389190611199565b60405180910390f35b61015b60048036038101906101569190610fad565b610413565b60405161016891906111b4565b60405180910390f35b61018b60048036038101906101869190610fad565b610436565b005b610195610467565b6040516101a29190611311565b60405180910390f35b6101c560048036038101906101c09190610f5e565b610471565b6040516101d291906111b4565b60405180910390f35b6101e36104a0565b6040516101f0919061132c565b60405180910390f35b610213600480360381019061020e9190610fad565b6104a9565b60405161022091906111b4565b60405180910390f35b610243600480360381019061023e9190610fad565b610553565b005b61025f600480360381019061025a9190610ef9565b610584565b60405161026c9190611311565b60405180910390f35b61027d6105cc565b60405161028a91906111cf565b60405180910390f35b6102ad60048036038101906102a89190610fad565b61065e565b005b6102c960048036038101906102c49190610fad565b61066c565b6040516102d691906111b4565b60405180910390f35b6102f960048036038101906102f49190610fad565b610756565b60405161030691906111b4565b60405180910390f35b61032960048036038101906103249190610f22565b610779565b6040516103369190611311565b60405180910390f35b61035960048036038101906103549190610fad565b610800565b005b60606003805461036a90611475565b80601f016020809104026020016040519081016040528092919081815260200182805461039690611475565b80156103e35780601f106103b8576101008083540402835291602001916103e3565b820191906000526020600020905b8154815290600101906020018083116103c657829003601f168201915b5050505050905090565b600560009054906101000a900473ffffffffffffffffffffffffffffffffffffffff1681565b60008061041e61080e565b905061042b818585610816565b600191505092915050565b610463600560009054906101000a900473ffffffffffffffffffffffffffffffffffffffff1683836109e1565b5050565b6000600254905090565b60008061047c61080e565b9050610489858285610c62565b6104948585856109e1565b60019150509392505050565b60006012905090565b6000806104b461080e565b9050610548818585600160008673ffffffffffffffffffffffffffffffffffffffff1673ffffffffffffffffffffffffffffffffffffffff16815260200190815260200160002060008973ffffffffffffffffffffffffffffffffffffffff1673ffffffffffffffffffffffffffffffffffffffff168152602001908152602001600020546105439190611363565b610816565b600191505092915050565b610580600560009054906101000a900473ffffffffffffffffffffffffffffffffffffffff1683836109e1565b5050565b60008060008373ffffffffffffffffffffffffffffffffffffffff1673ffffffffffffffffffffffffffffffffffffffff168152602001908152602001600020549050919050565b6060600480546105db90611475565b80601f016020809104026020016040519081016040528092919081815260200182805461060790611475565b80156106545780601f1061062957610100808354040283529160200191610654565b820191906000526020600020905b81548152906001019060200180831161063757829003601f168201915b5050505050905090565b6106688282610cee565b5050565b60008061067761080e565b90506000600160008373ffffffffffffffffffffffffffffffffffffffff1673ffffffffffffffffffffffffffffffffffffffff16815260200190815260200160002060008673ffffffffffffffffffffffffffffffffffffffff1673ffffffffffffffffffffffffffffffffffffffff1681526020019081526020016000205490508381101561073d576040517f08c379a0000000000000000000000000000000000000000000000000000000008152600401610734906112f1565b60405180910390fd5b61074a8286868403610816565b60019250505092915050565b60008061076161080e565b905061076e8185856109e1565b600191505092915050565b6000600160008473ffffffffffffffffffffffffffffffffffffffff1673ffffffffffffffffffffffffffffffffffffffff16815260200190815260200160002060008373ffffffffffffffffffffffffffffffffffffffff1673ffffffffffffffffffffffffffffffffffffffff16815260200190815260200160002054905092915050565b61080a8282610cee565b5050565b600033905090565b600073ffffffffffffffffffffffffffffffffffffffff168373ffffffffffffffffffffffffffffffffffffffff161415610886576040517f08c379a000000000000000000000000000000000000000000000000000000000815260040161087d906112d1565b60405180910390fd5b600073ffffffffffffffffffffffffffffffffffffffff168273ffffffffffffffffffffffffffffffffffffffff1614156108f6576040517f08c379a00000000000000000000000000000000000000000000000000000000081526004016108ed90611231565b60405180910390fd5b80600160008573ffffffffffffffffffffffffffffffffffffffff1673ffffffffffffffffffffffffffffffffffffffff16815260200190815260200160002060008473ffffffffffffffffffffffffffffffffffffffff1673ffffffffffffffffffffffffffffffffffffffff168152602001908152602001600020819055508173ffffffffffffffffffffffffffffffffffffffff168373ffffffffffffffffffffffffffffffffffffffff167f8c5be1e5ebec7d5bd14f71427d1e84f3dd0314c0f7b2291e5b200ac8c7c3b925836040516109d49190611311565b60405180910390a3505050565b600073ffffffffffffffffffffffffffffffffffffffff168373ffffffffffffffffffffffffffffffffffffffff161415610a51576040517f08c379a0000000000000000000000000000000000000000000000000000000008152600401610a48906112b1565b60405180910390fd5b600073ffffffffffffffffffffffffffffffffffffffff168273ffffffffffffffffffffffffffffffffffffffff161415610ac1576040517f08c379a0000000000000000000000000000000000000000000000000000000008152600401610ab8906111f1565b60405180910390fd5b610acc838383610ec5565b60008060008573ffffffffffffffffffffffffffffffffffffffff1673ffffffffffffffffffffffffffffffffffffffff16815260200190815260200160002054905081811015610b52576040517f08c379a0000000000000000000000000000000000000000000000000000000008152600401610b4990611271565b60405180910390fd5b8181036000808673ffffffffffffffffffffffffffffffffffffffff1673ffffffffffffffffffffffffffffffffffffffff16815260200190815260200160002081905550816000808573ffffffffffffffffffffffffffffffffffffffff1673ffffffffffffffffffffffffffffffffffffffff1681526020019081526020016000206000828254610be59190611363565b925050819055508273ffffffffffffffffffffffffffffffffffffffff168473ffffffffffffffffffffffffffffffffffffffff167fddf252ad1be2c89b69c2b068fc378daa952ba7f163c4a11628f55a4df523b3ef84604051610c499190611311565b60405180910390a3610c5c848484610eca565b50505050565b6000610c6e8484610779565b90507fffffffffffffffffffffffffffffffffffffffffffffffffffffffffffffffff8114610ce85781811015610cda576040517f08c379a0000000000000000000000000000000000000000000000000000000008152600401610cd190611251565b60405180910390fd5b610ce78484848403610816565b5b50505050565b600073ffffffffffffffffffffffffffffffffffffffff168273ffffffffffffffffffffffffffffffffffffffff161415610d5e576040517f08c379a0000000000000000000000000000000000000000000000000000000008152600401610d5590611291565b60405180910390fd5b610d6a82600083610ec5565b60008060008473ffffffffffffffffffffffffffffffffffffffff1673ffffffffffffffffffffffffffffffffffffffff16815260200190815260200160002054905081811015610df0576040517f08c379a0000000000000000000000000000000000000000000000000000000008152600401610de790611211565b60405180910390fd5b8181036000808573ffffffffffffffffffffffffffffffffffffffff1673ffffffffffffffffffffffffffffffffffffffff168152602001908152602001600020819055508160026000828254610e4791906113b9565b92505081905550600073ffffffffffffffffffffffffffffffffffffffff168373ffffffffffffffffffffffffffffffffffffffff167fddf252ad1be2c89b69c2b068fc378daa952ba7f163c4a11628f55a4df523b3ef84604051610eac9190611311565b60405180910390a3610ec083600084610eca565b505050565b505050565b505050565b600081359050610ede816117b7565b92915050565b600081359050610ef3816117ce565b92915050565b600060208284031215610f0b57600080fd5b6000610f1984828501610ecf565b91505092915050565b60008060408385031215610f3557600080fd5b6000610f4385828601610ecf565b9250506020610f5485828601610ecf565b9150509250929050565b600080600060608486031215610f7357600080fd5b6000610f8186828701610ecf565b9350506020610f9286828701610ecf565b9250506040610fa386828701610ee4565b9150509250925092565b60008060408385031215610fc057600080fd5b6000610fce85828601610ecf565b9250506020610fdf85828601610ee4565b9150509250929050565b610ff2816113ed565b82525050565b611001816113ff565b82525050565b600061101282611347565b61101c8185611352565b935061102c818560208601611442565b61103581611505565b840191505092915050565b600061104d602383611352565b915061105882611516565b604082019050919050565b6000611070602283611352565b915061107b82611565565b604082019050919050565b6000611093602283611352565b915061109e826115b4565b604082019050919050565b60006110b6601d83611352565b91506110c182611603565b602082019050919050565b60006110d9602683611352565b91506110e48261162c565b604082019050919050565b60006110fc602183611352565b91506111078261167b565b604082019050919050565b600061111f602583611352565b915061112a826116ca565b604082019050919050565b6000611142602483611352565b915061114d82611719565b604082019050919050565b6000611165602583611352565b915061117082611768565b604082019050919050565b6111848161142b565b82525050565b61119381611435565b82525050565b60006020820190506111ae6000830184610fe9565b92915050565b60006020820190506111c96000830184610ff8565b92915050565b600060208201905081810360008301526111e98184611007565b905092915050565b6000602082019050818103600083015261120a81611040565b9050919050565b6000602082019050818103600083015261122a81611063565b9050919050565b6000602082019050818103600083015261124a81611086565b9050919050565b6000602082019050818103600083015261126a816110a9565b9050919050565b6000602082019050818103600083015261128a816110cc565b9050919050565b600060208201905081810360008301526112aa816110ef565b9050919050565b600060208201905081810360008301526112ca81611112565b9050919050565b600060208201905081810360008301526112ea81611135565b9050919050565b6000602082019050818103600083015261130a81611158565b9050919050565b6000602082019050611326600083018461117b565b92915050565b6000602082019050611341600083018461118a565b92915050565b600081519050919050565b600082825260208201905092915050565b600061136e8261142b565b91506113798361142b565b9250827fffffffffffffffffffffffffffffffffffffffffffffffffffffffffffffffff038211156113ae576113ad6114a7565b5b828201905092915050565b60006113c48261142b565b91506113cf8361142b565b9250828210156113e2576113e16114a7565b5b828203905092915050565b60006113f88261140b565b9050919050565b60008115159050919050565b600073ffffffffffffffffffffffffffffffffffffffff82169050919050565b6000819050919050565b600060ff82169050919050565b60005b83811015611460578082015181840152602081019050611445565b8381111561146f576000848401525b50505050565b6000600282049050600182168061148d57607f821691505b602082108114156114a1576114a06114d6565b5b50919050565b7f4e487b7100000000000000000000000000000000000000000000000000000000600052601160045260246000fd5b7f4e487b7100000000000000000000000000000000000000000000000000000000600052602260045260246000fd5b6000601f19601f8301169050919050565b7f45524332303a207472616e7366657220746f20746865207a65726f206164647260008201527f6573730000000000000000000000000000000000000000000000000000000000602082015250565b7f45524332303a206275726e20616d6f756e7420657863656564732062616c616e60008201527f6365000000000000000000000000000000000000000000000000000000000000602082015250565b7f45524332303a20617070726f766520746f20746865207a65726f20616464726560008201527f7373000000000000000000000000000000000000000000000000000000000000602082015250565b7f45524332303a20696e73756666696369656e7420616c6c6f77616e6365000000600082015250565b7f45524332303a207472616e7366657220616d6f756e742065786365656473206260008201527f616c616e63650000000000000000000000000000000000000000000000000000602082015250565b7f45524332303a206275726e2066726f6d20746865207a65726f2061646472657360008201527f7300000000000000000000000000000000000000000000000000000000000000602082015250565b7f45524332303a207472616e736665722066726f6d20746865207a65726f20616460008201527f6472657373000000000000000000000000000000000000000000000000000000602082015250565b7f45524332303a20617070726f76652066726f6d20746865207a65726f2061646460008201527f7265737300000000000000000000000000000000000000000000000000000000602082015250565b7f45524332303a2064656372656173656420616c6c6f77616e63652062656c6f7760008201527f207a65726f000000000000000000000000000000000000000000000000000000602082015250565b6117c0816113ed565b81146117cb57600080fd5b50565b6117d78161142b565b81146117e257600080fd5b5056fea264697066735822122080988f9ac38d06d6540e436308a14d3e520fd701ca97a9b8e948068e9ee96a9464736f6c63430008030033",
  "linkReferences": {},
  "deployedLinkReferences": {}
}